{
  "_format": "hh-sol-artifact-1",
  "contractName": "Exchange",
  "sourceName": "contracts/exchange/Exchange.sol",
  "abi": [
    {
      "inputs": [
        {
          "internalType": "address",
          "name": "_token",
          "type": "address"
        }
      ],
      "stateMutability": "nonpayable",
      "type": "constructor"
    },
    {
      "anonymous": false,
      "inputs": [
        {
          "indexed": true,
          "internalType": "address",
          "name": "previousOwner",
          "type": "address"
        },
        {
          "indexed": true,
          "internalType": "address",
          "name": "newOwner",
          "type": "address"
        }
      ],
      "name": "OwnershipTransferred",
      "type": "event"
    },
    {
      "anonymous": false,
      "inputs": [
        {
          "indexed": true,
          "internalType": "bytes32",
          "name": "role",
          "type": "bytes32"
        },
        {
          "indexed": true,
          "internalType": "bytes32",
          "name": "previousAdminRole",
          "type": "bytes32"
        },
        {
          "indexed": true,
          "internalType": "bytes32",
          "name": "newAdminRole",
          "type": "bytes32"
        }
      ],
      "name": "RoleAdminChanged",
      "type": "event"
    },
    {
      "anonymous": false,
      "inputs": [
        {
          "indexed": true,
          "internalType": "bytes32",
          "name": "role",
          "type": "bytes32"
        },
        {
          "indexed": true,
          "internalType": "address",
          "name": "account",
          "type": "address"
        },
        {
          "indexed": true,
          "internalType": "address",
          "name": "sender",
          "type": "address"
        }
      ],
      "name": "RoleGranted",
      "type": "event"
    },
    {
      "anonymous": false,
      "inputs": [
        {
          "indexed": true,
          "internalType": "bytes32",
          "name": "role",
          "type": "bytes32"
        },
        {
          "indexed": true,
          "internalType": "address",
          "name": "account",
          "type": "address"
        },
        {
          "indexed": true,
          "internalType": "address",
          "name": "sender",
          "type": "address"
        }
      ],
      "name": "RoleRevoked",
      "type": "event"
    },
    {
      "inputs": [],
      "name": "DEFAULT_ADMIN_ROLE",
      "outputs": [
        {
          "internalType": "bytes32",
          "name": "",
          "type": "bytes32"
        }
      ],
      "stateMutability": "view",
      "type": "function"
    },
    {
      "inputs": [
        {
          "internalType": "address",
          "name": "nft",
          "type": "address"
        },
        {
          "internalType": "uint256",
          "name": "tokenId",
          "type": "uint256"
        },
        {
          "internalType": "address",
          "name": "from",
          "type": "address"
        },
        {
          "internalType": "address",
          "name": "to",
          "type": "address"
        },
        {
          "internalType": "uint256",
          "name": "price",
          "type": "uint256"
        }
      ],
      "name": "exchange",
      "outputs": [],
      "stateMutability": "nonpayable",
      "type": "function"
    },
    {
      "inputs": [
        {
          "internalType": "address",
          "name": "nft",
          "type": "address"
        },
        {
          "internalType": "uint256",
          "name": "tokenId",
          "type": "uint256"
        },
        {
          "internalType": "address",
          "name": "from",
          "type": "address"
        },
        {
          "internalType": "address",
          "name": "to",
          "type": "address"
        },
        {
          "internalType": "uint256",
          "name": "price",
          "type": "uint256"
        },
        {
          "internalType": "uint256",
          "name": "fee",
          "type": "uint256"
        },
        {
          "internalType": "address[]",
          "name": "feeds",
          "type": "address[]"
        },
        {
          "internalType": "uint256[]",
          "name": "percents",
          "type": "uint256[]"
        }
      ],
      "name": "exchangeWithFeed",
      "outputs": [],
      "stateMutability": "nonpayable",
      "type": "function"
    },
    {
      "inputs": [
        {
          "internalType": "bytes32",
          "name": "role",
          "type": "bytes32"
        }
      ],
      "name": "getRoleAdmin",
      "outputs": [
        {
          "internalType": "bytes32",
          "name": "",
          "type": "bytes32"
        }
      ],
      "stateMutability": "view",
      "type": "function"
    },
    {
      "inputs": [
        {
          "internalType": "bytes32",
          "name": "role",
          "type": "bytes32"
        },
        {
          "internalType": "uint256",
          "name": "index",
          "type": "uint256"
        }
      ],
      "name": "getRoleMember",
      "outputs": [
        {
          "internalType": "address",
          "name": "",
          "type": "address"
        }
      ],
      "stateMutability": "view",
      "type": "function"
    },
    {
      "inputs": [
        {
          "internalType": "bytes32",
          "name": "role",
          "type": "bytes32"
        }
      ],
      "name": "getRoleMemberCount",
      "outputs": [
        {
          "internalType": "uint256",
          "name": "",
          "type": "uint256"
        }
      ],
      "stateMutability": "view",
      "type": "function"
    },
    {
      "inputs": [
        {
          "internalType": "bytes32",
          "name": "role",
          "type": "bytes32"
        },
        {
          "internalType": "address",
          "name": "account",
          "type": "address"
        }
      ],
      "name": "grantRole",
      "outputs": [],
      "stateMutability": "nonpayable",
      "type": "function"
    },
    {
      "inputs": [
        {
          "internalType": "bytes32",
          "name": "role",
          "type": "bytes32"
        },
        {
          "internalType": "address",
          "name": "account",
          "type": "address"
        }
      ],
      "name": "hasRole",
      "outputs": [
        {
          "internalType": "bool",
          "name": "",
          "type": "bool"
        }
      ],
      "stateMutability": "view",
      "type": "function"
    },
    {
      "inputs": [],
      "name": "owner",
      "outputs": [
        {
          "internalType": "address",
          "name": "",
          "type": "address"
        }
      ],
      "stateMutability": "view",
      "type": "function"
    },
    {
      "inputs": [],
      "name": "renounceOwnership",
      "outputs": [],
      "stateMutability": "nonpayable",
      "type": "function"
    },
    {
      "inputs": [
        {
          "internalType": "bytes32",
          "name": "role",
          "type": "bytes32"
        },
        {
          "internalType": "address",
          "name": "account",
          "type": "address"
        }
      ],
      "name": "renounceRole",
      "outputs": [],
      "stateMutability": "nonpayable",
      "type": "function"
    },
    {
      "inputs": [
        {
          "internalType": "bytes32",
          "name": "role",
          "type": "bytes32"
        },
        {
          "internalType": "address",
          "name": "account",
          "type": "address"
        }
      ],
      "name": "revokeRole",
      "outputs": [],
      "stateMutability": "nonpayable",
      "type": "function"
    },
    {
      "inputs": [],
      "name": "token",
      "outputs": [
        {
          "internalType": "contract IERC20",
          "name": "",
          "type": "address"
        }
      ],
      "stateMutability": "view",
      "type": "function"
    },
    {
      "inputs": [
        {
          "internalType": "address",
          "name": "newOwner",
          "type": "address"
        }
      ],
      "name": "transferOwnership",
      "outputs": [],
      "stateMutability": "nonpayable",
      "type": "function"
    }
  ],
  "bytecode": "0x608060405234801561001057600080fd5b506040516114aa3803806114aa8339818101604052602081101561003357600080fd5b5051600061003f6100ae565b600080546001600160a01b0319166001600160a01b0383169081178255604051929350917f8be0079c531659141344cd1fd0a4f28419497f9722a3daafe3b4186f6b6457e0908290a350600280546001600160a01b0319166001600160a01b03929092169190911790556100b2565b3390565b6113e9806100c16000396000f3fe608060405234801561001057600080fd5b50600436106100ea5760003560e01c806391d148541161008c578063ca15c87311610066578063ca15c87314610348578063d547741f14610365578063f2fde38b14610391578063fc0c546a146103b7576100ea565b806391d14854146102bc5780639bc51940146102fc578063a217fddf14610340576100ea565b806336568abe116100c857806336568abe14610241578063715018a61461026d5780638da5cb5b146102755780639010d07c14610299576100ea565b80630b828241146100ef578063248a9ca3146101e65780632f2ff15d14610215575b600080fd5b6101e4600480360361010081101561010657600080fd5b6001600160a01b03823581169260208101359260408201358316926060830135169160808101359160a0820135919081019060e0810160c082013564010000000081111561015357600080fd5b82018360208201111561016557600080fd5b8035906020019184602083028401116401000000008311171561018757600080fd5b9193909290916020810190356401000000008111156101a557600080fd5b8201836020820111156101b757600080fd5b803590602001918460208302840111640100000000831117156101d957600080fd5b5090925090506103bf565b005b610203600480360360208110156101fc57600080fd5b503561070a565b60408051918252519081900360200190f35b6101e46004803603604081101561022b57600080fd5b50803590602001356001600160a01b031661071f565b6101e46004803603604081101561025757600080fd5b50803590602001356001600160a01b031661078b565b6101e46107ec565b61027d6108b7565b604080516001600160a01b039092168252519081900360200190f35b61027d600480360360408110156102af57600080fd5b50803590602001356108c6565b6102e8600480360360408110156102d257600080fd5b50803590602001356001600160a01b03166108e7565b604080519115158252519081900360200190f35b6101e4600480360360a081101561031257600080fd5b506001600160a01b0381358116916020810135916040820135811691606081013590911690608001356108ff565b6102036109de565b6102036004803603602081101561035e57600080fd5b50356109e3565b6101e46004803603604081101561037b57600080fd5b50803590602001356001600160a01b03166109fa565b6101e4600480360360208110156103a757600080fd5b50356001600160a01b0316610a53565b61027d610b74565b6832bc31b430b733b2b960b91b60006103d6610b83565b90506103e282826108e7565b610583576103fa816001600160a01b03166014610b87565b610405836020610b87565b60405160200180807f416363657373436f6e74726f6c3a206163636f756e742000000000000000000081525060170183805190602001908083835b6020831061045f5780518252601f199092019160209182019101610440565b51815160209384036101000a60001901801990921691161790527f206973206d697373696e6720726f6c6520000000000000000000000000000000919093019081528451601190910192850191508083835b602083106104d05780518252601f1990920191602091820191016104b1565b51815160209384036101000a60001901801990921691161790526040805192909401828103601f190183529384905262461bcd60e51b84526004840181815282516024860152825192975095508594506044909301928601915080838360005b83811015610548578181015183820152602001610530565b50505050905090810190601f1680156105755780820380516001836020036101000a031916815260200191505b509250505060405180910390fd5b6000805b848110156105b15785858281811061059b57fe5b6020029190910135929092019150600101610587565b508061271014610608576040805162461bcd60e51b815260206004820152601560248201527f70657263656e7473206d75737420626520313030250000000000000000000000604482015290519081900360640190fd5b60005b868110156106625760025461065a906001600160a01b031689898481811061062f57fe5b905060200201356001600160a01b03168e89898681811061064c57fe5b905060200201358d02610cf2565b60010161060b565b5060025461067b906001600160a01b03168b8d8c610cf2565b8c6001600160a01b03166342842e0e8c8c8f6040518463ffffffff1660e01b815260040180846001600160a01b03168152602001836001600160a01b031681526020018281526020019350505050600060405180830381600087803b1580156106e357600080fd5b505af11580156106f7573d6000803e3d6000fd5b5050505050505050505050505050505050565b60009081526001602052604090206002015490565b6000828152600160205260409020600201546107429061073d610b83565b6108e7565b61077d5760405162461bcd60e51b815260040180806020018281038252602f8152602001806112d9602f913960400191505060405180910390fd5b6107878282610d67565b5050565b610793610b83565b6001600160a01b0316816001600160a01b0316146107e25760405162461bcd60e51b815260040180806020018281038252602f8152602001806113ae602f913960400191505060405180910390fd5b6107878282610dd0565b6107f4610b83565b6001600160a01b03166108056108b7565b6001600160a01b031614610860576040805162461bcd60e51b815260206004820181905260248201527f4f776e61626c653a2063616c6c6572206973206e6f7420746865206f776e6572604482015290519081900360640190fd5b600080546040516001600160a01b03909116907f8be0079c531659141344cd1fd0a4f28419497f9722a3daafe3b4186f6b6457e0908390a36000805473ffffffffffffffffffffffffffffffffffffffff19169055565b6000546001600160a01b031690565b60008281526001602052604081206108de9083610e39565b90505b92915050565b60008281526001602052604081206108de9083610e45565b6832bc31b430b733b2b960b91b6000610916610b83565b905061092282826108e7565b61093a576103fa816001600160a01b03166014610b87565b6002548790610954906001600160a01b0316868887610cf2565b806001600160a01b03166342842e0e87878a6040518463ffffffff1660e01b815260040180846001600160a01b03168152602001836001600160a01b031681526020018281526020019350505050600060405180830381600087803b1580156109bc57600080fd5b505af11580156109d0573d6000803e3d6000fd5b505050505050505050505050565b600081565b60008181526001602052604081206108e190610e5a565b600082815260016020526040902060020154610a189061073d610b83565b6107e25760405162461bcd60e51b81526004018080602001828103825260308152602001806113546030913960400191505060405180910390fd5b610a5b610b83565b6001600160a01b0316610a6c6108b7565b6001600160a01b031614610ac7576040805162461bcd60e51b815260206004820181905260248201527f4f776e61626c653a2063616c6c6572206973206e6f7420746865206f776e6572604482015290519081900360640190fd5b6001600160a01b038116610b0c5760405162461bcd60e51b81526004018080602001828103825260268152602001806113086026913960400191505060405180910390fd5b600080546040516001600160a01b03808516939216917f8be0079c531659141344cd1fd0a4f28419497f9722a3daafe3b4186f6b6457e091a36000805473ffffffffffffffffffffffffffffffffffffffff19166001600160a01b0392909216919091179055565b6002546001600160a01b031681565b3390565b6060808260020260020167ffffffffffffffff81118015610ba757600080fd5b506040519080825280601f01601f191660200182016040528015610bd2576020820181803683370190505b509050600360fc1b81600081518110610be757fe5b60200101906001600160f81b031916908160001a905350600f60fb1b81600181518110610c1057fe5b60200101906001600160f81b031916908160001a905350600160028402015b6001811115610c9e577f303132333435363738396162636465660000000000000000000000000000000085600f1660108110610c6757fe5b1a60f81b828281518110610c7757fe5b60200101906001600160f81b031916908160001a90535060049490941c9360001901610c2f565b5083156108de576040805162461bcd60e51b815260206004820181905260248201527f537472696e67733a20686578206c656e67746820696e73756666696369656e74604482015290519081900360640190fd5b604080516001600160a01b0380861660248301528416604482015260648082018490528251808303909101815260849091019091526020810180517bffffffffffffffffffffffffffffffffffffffffffffffffffffffff166323b872dd60e01b179052610d61908590610e65565b50505050565b6000828152600160205260409020610d7f9082610f1b565b1561078757610d8c610b83565b6001600160a01b0316816001600160a01b0316837f2f8788117e7eff1d82e926ec794901d17c78024a50270940304540a733656f0d60405160405180910390a45050565b6000828152600160205260409020610de89082610f30565b1561078757610df5610b83565b6001600160a01b0316816001600160a01b0316837ff6391f5c32d9c69d2a47ea670b442974b53935d1edc7fd64eb21e047a839171b60405160405180910390a45050565b60006108de8383610f45565b60006108de836001600160a01b038416610fa9565b60006108e182610fc1565b6060610eba826040518060400160405280602081526020017f5361666545524332303a206c6f772d6c6576656c2063616c6c206661696c6564815250856001600160a01b0316610fc59092919063ffffffff16565b805190915015610f1657808060200190516020811015610ed957600080fd5b5051610f165760405162461bcd60e51b815260040180806020018281038252602a815260200180611384602a913960400191505060405180910390fd5b505050565b60006108de836001600160a01b038416610fde565b60006108de836001600160a01b038416611028565b81546000908210610f875760405162461bcd60e51b81526004018080602001828103825260228152602001806112b76022913960400191505060405180910390fd5b826000018281548110610f9657fe5b9060005260206000200154905092915050565b60009081526001919091016020526040902054151590565b5490565b6060610fd484846000856110ee565b90505b9392505050565b6000610fea8383610fa9565b611020575081546001818101845560008481526020808220909301849055845484825282860190935260409020919091556108e1565b5060006108e1565b600081815260018301602052604081205480156110e4578354600019808301919081019060009087908390811061105b57fe5b906000526020600020015490508087600001848154811061107857fe5b6000918252602080832090910192909255828152600189810190925260409020908401905586548790806110a857fe5b600190038181906000526020600020016000905590558660010160008781526020019081526020016000206000905560019450505050506108e1565b60009150506108e1565b60608247101561112f5760405162461bcd60e51b815260040180806020018281038252602681526020018061132e6026913960400191505060405180910390fd5b6111388561124a565b611189576040805162461bcd60e51b815260206004820152601d60248201527f416464726573733a2063616c6c20746f206e6f6e2d636f6e7472616374000000604482015290519081900360640190fd5b60006060866001600160a01b031685876040518082805190602001908083835b602083106111c85780518252601f1990920191602091820191016111a9565b6001836020036101000a03801982511681845116808217855250505050505090500191505060006040518083038185875af1925050503d806000811461122a576040519150601f19603f3d011682016040523d82523d6000602084013e61122f565b606091505b509150915061123f828286611250565b979650505050505050565b3b151590565b6060831561125f575081610fd7565b82511561126f5782518084602001fd5b60405162461bcd60e51b815260206004820181815284516024840152845185939192839260440191908501908083836000831561054857818101518382015260200161053056fe456e756d657261626c655365743a20696e646578206f7574206f6620626f756e6473416363657373436f6e74726f6c3a2073656e646572206d75737420626520616e2061646d696e20746f206772616e744f776e61626c653a206e6577206f776e657220697320746865207a65726f2061646472657373416464726573733a20696e73756666696369656e742062616c616e636520666f722063616c6c416363657373436f6e74726f6c3a2073656e646572206d75737420626520616e2061646d696e20746f207265766f6b655361666545524332303a204552433230206f7065726174696f6e20646964206e6f742073756363656564416363657373436f6e74726f6c3a2063616e206f6e6c792072656e6f756e636520726f6c657320666f722073656c66a164736f6c634300060c000a",
  "linkReferences": {},
  "deployedLinkReferences": {}
}