{
  "_format": "hh-sol-artifact-1",
  "contractName": "PermissionControl",
  "sourceName": "contracts/PermissionControl.sol",
  "abi": [
    {
      "inputs": [],
      "stateMutability": "nonpayable",
      "type": "constructor"
    },
    {
      "anonymous": false,
      "inputs": [
        {
          "indexed": true,
          "internalType": "address",
          "name": "previousOwner",
          "type": "address"
        },
        {
          "indexed": true,
          "internalType": "address",
          "name": "newOwner",
          "type": "address"
        }
      ],
      "name": "OwnershipTransferred",
      "type": "event"
    },
    {
      "anonymous": false,
      "inputs": [
        {
          "indexed": true,
          "internalType": "bytes32",
          "name": "role",
          "type": "bytes32"
        },
        {
          "indexed": true,
          "internalType": "bytes32",
          "name": "previousAdminRole",
          "type": "bytes32"
        },
        {
          "indexed": true,
          "internalType": "bytes32",
          "name": "newAdminRole",
          "type": "bytes32"
        }
      ],
      "name": "RoleAdminChanged",
      "type": "event"
    },
    {
      "anonymous": false,
      "inputs": [
        {
          "indexed": true,
          "internalType": "bytes32",
          "name": "role",
          "type": "bytes32"
        },
        {
          "indexed": true,
          "internalType": "address",
          "name": "account",
          "type": "address"
        },
        {
          "indexed": true,
          "internalType": "address",
          "name": "sender",
          "type": "address"
        }
      ],
      "name": "RoleGranted",
      "type": "event"
    },
    {
      "anonymous": false,
      "inputs": [
        {
          "indexed": true,
          "internalType": "bytes32",
          "name": "role",
          "type": "bytes32"
        },
        {
          "indexed": true,
          "internalType": "address",
          "name": "account",
          "type": "address"
        },
        {
          "indexed": true,
          "internalType": "address",
          "name": "sender",
          "type": "address"
        }
      ],
      "name": "RoleRevoked",
      "type": "event"
    },
    {
      "inputs": [],
      "name": "DEFAULT_ADMIN_ROLE",
      "outputs": [
        {
          "internalType": "bytes32",
          "name": "",
          "type": "bytes32"
        }
      ],
      "stateMutability": "view",
      "type": "function"
    },
    {
      "inputs": [
        {
          "internalType": "bytes32",
          "name": "permissionName",
          "type": "bytes32"
        },
        {
          "internalType": "bytes32[]",
          "name": "data",
          "type": "bytes32[]"
        },
        {
          "internalType": "uint32[]",
          "name": "operations",
          "type": "uint32[]"
        },
        {
          "internalType": "uint32[]",
          "name": "defaultOperations",
          "type": "uint32[]"
        },
        {
          "internalType": "bytes32[]",
          "name": "parent",
          "type": "bytes32[]"
        },
        {
          "internalType": "bytes32[]",
          "name": "hash",
          "type": "bytes32[]"
        }
      ],
      "name": "addPermission",
      "outputs": [],
      "stateMutability": "nonpayable",
      "type": "function"
    },
    {
      "inputs": [
        {
          "internalType": "bytes32",
          "name": "permissionName",
          "type": "bytes32"
        },
        {
          "internalType": "bytes32",
          "name": "dataHash",
          "type": "bytes32"
        },
        {
          "internalType": "uint32",
          "name": "operations",
          "type": "uint32"
        }
      ],
      "name": "checkPermission",
      "outputs": [
        {
          "internalType": "bool",
          "name": "",
          "type": "bool"
        }
      ],
      "stateMutability": "view",
      "type": "function"
    },
    {
      "inputs": [
        {
          "internalType": "bytes32",
          "name": "",
          "type": "bytes32"
        },
        {
          "internalType": "bytes32",
          "name": "",
          "type": "bytes32"
        }
      ],
      "name": "datas",
      "outputs": [
        {
          "internalType": "bool",
          "name": "isUsed",
          "type": "bool"
        },
        {
          "internalType": "bytes32",
          "name": "data",
          "type": "bytes32"
        },
        {
          "internalType": "uint32",
          "name": "operations",
          "type": "uint32"
        },
        {
          "internalType": "uint32",
          "name": "defaultOperations",
          "type": "uint32"
        },
        {
          "internalType": "bytes32",
          "name": "parent",
          "type": "bytes32"
        },
        {
          "internalType": "bytes32",
          "name": "hash",
          "type": "bytes32"
        }
      ],
      "stateMutability": "view",
      "type": "function"
    },
    {
      "inputs": [
        {
          "internalType": "bytes32",
          "name": "permissionName",
          "type": "bytes32"
        },
        {
          "internalType": "bytes32[]",
          "name": "data",
          "type": "bytes32[]"
        }
      ],
      "name": "delPermission",
      "outputs": [],
      "stateMutability": "nonpayable",
      "type": "function"
    },
    {
      "inputs": [
        {
          "internalType": "bytes32",
          "name": "role",
          "type": "bytes32"
        }
      ],
      "name": "getRoleAdmin",
      "outputs": [
        {
          "internalType": "bytes32",
          "name": "",
          "type": "bytes32"
        }
      ],
      "stateMutability": "view",
      "type": "function"
    },
    {
      "inputs": [
        {
          "internalType": "bytes32",
          "name": "role",
          "type": "bytes32"
        },
        {
          "internalType": "uint256",
          "name": "index",
          "type": "uint256"
        }
      ],
      "name": "getRoleMember",
      "outputs": [
        {
          "internalType": "address",
          "name": "",
          "type": "address"
        }
      ],
      "stateMutability": "view",
      "type": "function"
    },
    {
      "inputs": [
        {
          "internalType": "bytes32",
          "name": "role",
          "type": "bytes32"
        }
      ],
      "name": "getRoleMemberCount",
      "outputs": [
        {
          "internalType": "uint256",
          "name": "",
          "type": "uint256"
        }
      ],
      "stateMutability": "view",
      "type": "function"
    },
    {
      "inputs": [
        {
          "internalType": "bytes32",
          "name": "role",
          "type": "bytes32"
        },
        {
          "internalType": "address",
          "name": "account",
          "type": "address"
        }
      ],
      "name": "grantRole",
      "outputs": [],
      "stateMutability": "nonpayable",
      "type": "function"
    },
    {
      "inputs": [
        {
          "internalType": "bytes32",
          "name": "role",
          "type": "bytes32"
        },
        {
          "internalType": "address",
          "name": "account",
          "type": "address"
        }
      ],
      "name": "hasRole",
      "outputs": [
        {
          "internalType": "bool",
          "name": "",
          "type": "bool"
        }
      ],
      "stateMutability": "view",
      "type": "function"
    },
    {
      "inputs": [],
      "name": "owner",
      "outputs": [
        {
          "internalType": "address",
          "name": "",
          "type": "address"
        }
      ],
      "stateMutability": "view",
      "type": "function"
    },
    {
      "inputs": [],
      "name": "renounceOwnership",
      "outputs": [],
      "stateMutability": "nonpayable",
      "type": "function"
    },
    {
      "inputs": [
        {
          "internalType": "bytes32",
          "name": "role",
          "type": "bytes32"
        },
        {
          "internalType": "address",
          "name": "account",
          "type": "address"
        }
      ],
      "name": "renounceRole",
      "outputs": [],
      "stateMutability": "nonpayable",
      "type": "function"
    },
    {
      "inputs": [
        {
          "internalType": "bytes32",
          "name": "role",
          "type": "bytes32"
        },
        {
          "internalType": "address",
          "name": "account",
          "type": "address"
        }
      ],
      "name": "revokeRole",
      "outputs": [],
      "stateMutability": "nonpayable",
      "type": "function"
    },
    {
      "inputs": [
        {
          "internalType": "address",
          "name": "newOwner",
          "type": "address"
        }
      ],
      "name": "transferOwnership",
      "outputs": [],
      "stateMutability": "nonpayable",
      "type": "function"
    }
  ],
  "bytecode": "0x60806040523480156200001157600080fd5b5060006200001e620000ef565b600080546001600160a01b0319166001600160a01b0383169081178255604051929350917f8be0079c531659141344cd1fd0a4f28419497f9722a3daafe3b4186f6b6457e0908290a3506200009d7fd387004a44187fca6ef23d936cb1f140fa95249dbbe12d279d18fee1c03a9b0462000097620000ef565b620000f3565b620000e97f710fe53b4ead4eb49a281544d00606284187c1a254e4529cfcf0fb4073a5763c7fd387004a44187fca6ef23d936cb1f140fa95249dbbe12d279d18fee1c03a9b0462000103565b62000257565b3390565b620000ff828262000155565b5050565b600082815260016020526040808220600201549051839285917fbd79b86ffe0ab8e8776151514217cd7cacd52c909f66475c3af44e129f0b00ff9190a460009182526001602052604090912060020155565b60008281526001602090815260409091206200017c918390620007f4620001d0821b17901c565b15620000ff576200018c620000ef565b6001600160a01b0316816001600160a01b0316837f2f8788117e7eff1d82e926ec794901d17c78024a50270940304540a733656f0d60405160405180910390a45050565b6000620001e7836001600160a01b038416620001f0565b90505b92915050565b6000620001fe83836200023f565b6200023657508154600181810184556000848152602080822090930184905584548482528286019093526040902091909155620001ea565b506000620001ea565b60009081526001919091016020526040902054151590565b610fe080620002676000396000f3fe608060405234801561001057600080fd5b50600436106100f55760003560e01c80639010d07c11610097578063d547741f11610066578063d547741f146101ee578063dffaa0aa14610201578063f2fde38b14610214578063fe62500114610227576100f5565b80639010d07c146101a057806391d14854146101b3578063a217fddf146101d3578063ca15c873146101db576100f5565b80635f21d3a7116100d35780635f21d3a71461014b5780636088983414610170578063715018a6146101835780638da5cb5b1461018b576100f5565b8063248a9ca3146100fa5780632f2ff15d1461012357806336568abe14610138575b600080fd5b61010d610108366004610b3d565b61023a565b60405161011a9190610da8565b60405180910390f35b610136610131366004610b55565b61024f565b005b610136610146366004610b55565b6102a0565b61015e610159366004610cd3565b6102e2565b60405161011a96959493929190610d77565b61013661017e366004610bd9565b61032f565b6101366104a0565b610193610536565b60405161011a9190610d58565b6101936101ae366004610cd3565b610545565b6101c66101c1366004610b55565b610566565b60405161011a9190610d6c565b61010d61057e565b61010d6101e9366004610b3d565b610583565b6101366101fc366004610b55565b61059a565b6101c661020f366004610cf4565b6105d4565b610136610222366004610b0f565b61065d565b610136610235366004610b8f565b61072a565b60009081526001602052604090206002015490565b60008281526001602052604090206002015461026d906101c1610809565b6102925760405162461bcd60e51b815260040161028990610e2a565b60405180910390fd5b61029c828261080d565b5050565b6102a8610809565b6001600160a01b0316816001600160a01b0316146102d85760405162461bcd60e51b815260040161028990610f76565b61029c8282610876565b600260208181526000938452604080852090915291835291208054600182015492820154600383015460049093015460ff909216939263ffffffff80831693640100000000909304169186565b61035b7f710fe53b4ead4eb49a281544d00606284187c1a254e4529cfcf0fb4073a5763c6101c1610809565b6103775760405162461bcd60e51b815260040161028990610db1565b60008b8152600260205260408120905b8a8110156104915760008260008e8e858181106103a057fe5b90506020020135815260200190815260200160002090508c8c838181106103c357fe5b60200291909101356001830155508a8a838181106103dd57fe5b90506020020160208101906103f29190610d34565b60028201805463ffffffff191663ffffffff9290921691909117905588888381811061041a57fe5b905060200201602081019061042f9190610d34565b8160020160046101000a81548163ffffffff021916908363ffffffff16021790555086868381811061045d57fe5b602002919091013560038301555084848381811061047757fe5b602002919091013560049092019190915550600101610387565b50505050505050505050505050565b6104a8610809565b6001600160a01b03166104b9610536565b6001600160a01b0316146104df5760405162461bcd60e51b815260040161028990610f41565b600080546040516001600160a01b03909116907f8be0079c531659141344cd1fd0a4f28419497f9722a3daafe3b4186f6b6457e0908390a36000805473ffffffffffffffffffffffffffffffffffffffff19169055565b6000546001600160a01b031690565b600082815260016020526040812061055d90836108df565b90505b92915050565b600082815260016020526040812061055d90836108eb565b600081565b600081815260016020526040812061056090610900565b6000828152600160205260409020600201546105b8906101c1610809565b6102d85760405162461bcd60e51b815260040161028990610ee4565b60006105de610a91565b5050600092835260026020818152604080862094865293815293839020835160c081018552815460ff16151581526001820154958101959095529081015463ffffffff808216948601949094526401000000008104841660608601526003820154608086015260049091015460a0909401939093528082169216161490565b610665610809565b6001600160a01b0316610676610536565b6001600160a01b03161461069c5760405162461bcd60e51b815260040161028990610f41565b6001600160a01b0381166106c25760405162461bcd60e51b815260040161028990610e87565b600080546040516001600160a01b03808516939216917f8be0079c531659141344cd1fd0a4f28419497f9722a3daafe3b4186f6b6457e091a36000805473ffffffffffffffffffffffffffffffffffffffff19166001600160a01b0392909216919091179055565b6107567f710fe53b4ead4eb49a281544d00606284187c1a254e4529cfcf0fb4073a5763c6101c1610809565b6107725760405162461bcd60e51b815260040161028990610db1565b6000838152600260205260408120905b828110156107ed5781600085858481811061079957fe5b602090810292909201358352508101919091526040016000908120805460ff19168155600180820183905560028201805467ffffffffffffffff191690556003820183905560049091019190915501610782565b5050505050565b600061055d836001600160a01b03841661090b565b3390565b600082815260016020526040902061082590826107f4565b1561029c57610832610809565b6001600160a01b0316816001600160a01b0316837f2f8788117e7eff1d82e926ec794901d17c78024a50270940304540a733656f0d60405160405180910390a45050565b600082815260016020526040902061088e9082610955565b1561029c5761089b610809565b6001600160a01b0316816001600160a01b0316837ff6391f5c32d9c69d2a47ea670b442974b53935d1edc7fd64eb21e047a839171b60405160405180910390a45050565b600061055d838361096a565b600061055d836001600160a01b0384166109af565b6000610560826109c7565b600061091783836109af565b61094d57508154600181810184556000848152602080822090930184905584548482528286019093526040902091909155610560565b506000610560565b600061055d836001600160a01b0384166109cb565b8154600090821061098d5760405162461bcd60e51b815260040161028990610de8565b82600001828154811061099c57fe5b9060005260206000200154905092915050565b60009081526001919091016020526040902054151590565b5490565b60008181526001830160205260408120548015610a8757835460001980830191908101906000908790839081106109fe57fe5b9060005260206000200154905080876000018481548110610a1b57fe5b600091825260208083209091019290925582815260018981019092526040902090840190558654879080610a4b57fe5b60019003818190600052602060002001600090559055866001016000878152602001908152602001600020600090556001945050505050610560565b6000915050610560565b6040805160c081018252600080825260208201819052918101829052606081018290526080810182905260a081019190915290565b60008083601f840112610ad7578182fd5b50813567ffffffffffffffff811115610aee578182fd5b6020830191508360208083028501011115610b0857600080fd5b9250929050565b600060208284031215610b20578081fd5b81356001600160a01b0381168114610b36578182fd5b9392505050565b600060208284031215610b4e578081fd5b5035919050565b60008060408385031215610b67578081fd5b8235915060208301356001600160a01b0381168114610b84578182fd5b809150509250929050565b600080600060408486031215610ba3578081fd5b83359250602084013567ffffffffffffffff811115610bc0578182fd5b610bcc86828701610ac6565b9497909650939450505050565b600080600080600080600080600080600060c08c8e031215610bf9578687fd5b8b359a5067ffffffffffffffff8060208e01351115610c16578788fd5b610c268e60208f01358f01610ac6565b909b50995060408d0135811015610c3b578788fd5b610c4b8e60408f01358f01610ac6565b909950975060608d0135811015610c60578687fd5b610c708e60608f01358f01610ac6565b909750955060808d0135811015610c85578485fd5b610c958e60808f01358f01610ac6565b909550935060a08d0135811015610caa578283fd5b50610cbb8d60a08e01358e01610ac6565b81935080925050509295989b509295989b9093969950565b60008060408385031215610ce5578182fd5b50508035926020909101359150565b600080600060608486031215610d08578283fd5b8335925060208401359150604084013563ffffffff81168114610d29578182fd5b809150509250925092565b600060208284031215610d45578081fd5b813563ffffffff81168114610b36578182fd5b6001600160a01b0391909116815260200190565b901515815260200190565b9515158652602086019490945263ffffffff928316604086015291166060840152608083015260a082015260c00190565b90815260200190565b6020808252600f908201527f6e6565642061646d696e20726f6c650000000000000000000000000000000000604082015260600190565b60208082526022908201527f456e756d657261626c655365743a20696e646578206f7574206f6620626f756e604082015261647360f01b606082015260800190565b6020808252602f908201527f416363657373436f6e74726f6c3a2073656e646572206d75737420626520616e60408201527f2061646d696e20746f206772616e740000000000000000000000000000000000606082015260800190565b60208082526026908201527f4f776e61626c653a206e6577206f776e657220697320746865207a65726f206160408201527f6464726573730000000000000000000000000000000000000000000000000000606082015260800190565b60208082526030908201527f416363657373436f6e74726f6c3a2073656e646572206d75737420626520616e60408201527f2061646d696e20746f207265766f6b6500000000000000000000000000000000606082015260800190565b6020808252818101527f4f776e61626c653a2063616c6c6572206973206e6f7420746865206f776e6572604082015260600190565b6020808252602f908201527f416363657373436f6e74726f6c3a2063616e206f6e6c792072656e6f756e636560408201527f20726f6c657320666f722073656c66000000000000000000000000000000000060608201526080019056fea164736f6c634300060c000a",
  "linkReferences": {},
  "deployedLinkReferences": {}
}