{
  "_format": "hh-sol-artifact-1",
  "contractName": "TZContractTemplate",
  "sourceName": "contracts/workflow/TZContractTemplate.sol",
  "abi": [
    {
      "inputs": [
        {
          "internalType": "address",
          "name": "control",
          "type": "address"
        }
      ],
      "stateMutability": "nonpayable",
      "type": "constructor"
    },
    {
      "anonymous": false,
      "inputs": [
        {
          "indexed": true,
          "internalType": "address",
          "name": "previousOwner",
          "type": "address"
        },
        {
          "indexed": true,
          "internalType": "address",
          "name": "newOwner",
          "type": "address"
        }
      ],
      "name": "OwnershipTransferred",
      "type": "event"
    },
    {
      "anonymous": false,
      "inputs": [
        {
          "indexed": true,
          "internalType": "bytes32",
          "name": "role",
          "type": "bytes32"
        },
        {
          "indexed": true,
          "internalType": "bytes32",
          "name": "previousAdminRole",
          "type": "bytes32"
        },
        {
          "indexed": true,
          "internalType": "bytes32",
          "name": "newAdminRole",
          "type": "bytes32"
        }
      ],
      "name": "RoleAdminChanged",
      "type": "event"
    },
    {
      "anonymous": false,
      "inputs": [
        {
          "indexed": true,
          "internalType": "bytes32",
          "name": "role",
          "type": "bytes32"
        },
        {
          "indexed": true,
          "internalType": "address",
          "name": "account",
          "type": "address"
        },
        {
          "indexed": true,
          "internalType": "address",
          "name": "sender",
          "type": "address"
        }
      ],
      "name": "RoleGranted",
      "type": "event"
    },
    {
      "anonymous": false,
      "inputs": [
        {
          "indexed": true,
          "internalType": "bytes32",
          "name": "role",
          "type": "bytes32"
        },
        {
          "indexed": true,
          "internalType": "address",
          "name": "account",
          "type": "address"
        },
        {
          "indexed": true,
          "internalType": "address",
          "name": "sender",
          "type": "address"
        }
      ],
      "name": "RoleRevoked",
      "type": "event"
    },
    {
      "anonymous": false,
      "inputs": [
        {
          "indexed": true,
          "internalType": "uint256",
          "name": "instanceId",
          "type": "uint256"
        },
        {
          "indexed": true,
          "internalType": "address",
          "name": "owner",
          "type": "address"
        },
        {
          "indexed": true,
          "internalType": "uint256",
          "name": "endTime",
          "type": "uint256"
        },
        {
          "indexed": false,
          "internalType": "bytes32",
          "name": "hash",
          "type": "bytes32"
        },
        {
          "indexed": false,
          "internalType": "enum TZBaseTemplate.TzTemplateState",
          "name": "state",
          "type": "uint8"
        },
        {
          "indexed": false,
          "internalType": "address",
          "name": "signer",
          "type": "address"
        }
      ],
      "name": "TzContractSigned",
      "type": "event"
    },
    {
      "anonymous": false,
      "inputs": [
        {
          "indexed": true,
          "internalType": "uint256",
          "name": "instanceId",
          "type": "uint256"
        },
        {
          "indexed": true,
          "internalType": "address",
          "name": "owner",
          "type": "address"
        },
        {
          "indexed": true,
          "internalType": "uint256",
          "name": "endTime",
          "type": "uint256"
        },
        {
          "indexed": false,
          "internalType": "bytes32",
          "name": "hash",
          "type": "bytes32"
        },
        {
          "indexed": false,
          "internalType": "enum TZBaseTemplate.TzTemplateState",
          "name": "state",
          "type": "uint8"
        }
      ],
      "name": "TzContractStateChanged",
      "type": "event"
    },
    {
      "anonymous": false,
      "inputs": [
        {
          "indexed": true,
          "internalType": "uint256",
          "name": "instanceId",
          "type": "uint256"
        },
        {
          "indexed": true,
          "internalType": "address",
          "name": "owner",
          "type": "address"
        },
        {
          "indexed": false,
          "internalType": "enum TZBaseTemplate.TzTemplateState",
          "name": "state",
          "type": "uint8"
        }
      ],
      "name": "TzInstanceStateChanged",
      "type": "event"
    },
    {
      "inputs": [],
      "name": "DEFAULT_ADMIN_ROLE",
      "outputs": [
        {
          "internalType": "bytes32",
          "name": "",
          "type": "bytes32"
        }
      ],
      "stateMutability": "view",
      "type": "function"
    },
    {
      "inputs": [
        {
          "internalType": "uint256",
          "name": "insId",
          "type": "uint256"
        },
        {
          "internalType": "address",
          "name": "addr",
          "type": "address"
        }
      ],
      "name": "canPay",
      "outputs": [
        {
          "internalType": "bool",
          "name": "",
          "type": "bool"
        }
      ],
      "stateMutability": "nonpayable",
      "type": "function"
    },
    {
      "inputs": [
        {
          "internalType": "bytes32",
          "name": "hash",
          "type": "bytes32"
        },
        {
          "internalType": "uint256",
          "name": "endTime",
          "type": "uint256"
        },
        {
          "internalType": "address",
          "name": "user",
          "type": "address"
        }
      ],
      "name": "createInstance",
      "outputs": [
        {
          "internalType": "uint256",
          "name": "",
          "type": "uint256"
        }
      ],
      "stateMutability": "nonpayable",
      "type": "function"
    },
    {
      "inputs": [
        {
          "internalType": "uint256",
          "name": "insId",
          "type": "uint256"
        }
      ],
      "name": "end",
      "outputs": [],
      "stateMutability": "nonpayable",
      "type": "function"
    },
    {
      "inputs": [
        {
          "internalType": "uint256",
          "name": "insId",
          "type": "uint256"
        }
      ],
      "name": "getPayees",
      "outputs": [
        {
          "internalType": "bytes32[]",
          "name": "",
          "type": "bytes32[]"
        }
      ],
      "stateMutability": "view",
      "type": "function"
    },
    {
      "inputs": [
        {
          "internalType": "uint256",
          "name": "insId",
          "type": "uint256"
        },
        {
          "internalType": "address",
          "name": "payee",
          "type": "address"
        }
      ],
      "name": "getRatio",
      "outputs": [
        {
          "internalType": "uint256",
          "name": "",
          "type": "uint256"
        }
      ],
      "stateMutability": "view",
      "type": "function"
    },
    {
      "inputs": [
        {
          "internalType": "bytes32",
          "name": "role",
          "type": "bytes32"
        }
      ],
      "name": "getRoleAdmin",
      "outputs": [
        {
          "internalType": "bytes32",
          "name": "",
          "type": "bytes32"
        }
      ],
      "stateMutability": "view",
      "type": "function"
    },
    {
      "inputs": [
        {
          "internalType": "bytes32",
          "name": "role",
          "type": "bytes32"
        },
        {
          "internalType": "uint256",
          "name": "index",
          "type": "uint256"
        }
      ],
      "name": "getRoleMember",
      "outputs": [
        {
          "internalType": "address",
          "name": "",
          "type": "address"
        }
      ],
      "stateMutability": "view",
      "type": "function"
    },
    {
      "inputs": [
        {
          "internalType": "bytes32",
          "name": "role",
          "type": "bytes32"
        }
      ],
      "name": "getRoleMemberCount",
      "outputs": [
        {
          "internalType": "uint256",
          "name": "",
          "type": "uint256"
        }
      ],
      "stateMutability": "view",
      "type": "function"
    },
    {
      "inputs": [
        {
          "internalType": "bytes32",
          "name": "role",
          "type": "bytes32"
        },
        {
          "internalType": "address",
          "name": "account",
          "type": "address"
        }
      ],
      "name": "grantRole",
      "outputs": [],
      "stateMutability": "nonpayable",
      "type": "function"
    },
    {
      "inputs": [
        {
          "internalType": "bytes32",
          "name": "role",
          "type": "bytes32"
        },
        {
          "internalType": "address",
          "name": "account",
          "type": "address"
        }
      ],
      "name": "hasRole",
      "outputs": [
        {
          "internalType": "bool",
          "name": "",
          "type": "bool"
        }
      ],
      "stateMutability": "view",
      "type": "function"
    },
    {
      "inputs": [
        {
          "internalType": "uint256",
          "name": "insId",
          "type": "uint256"
        },
        {
          "internalType": "address[]",
          "name": "signatories",
          "type": "address[]"
        },
        {
          "internalType": "address",
          "name": "payer",
          "type": "address"
        },
        {
          "internalType": "address[]",
          "name": "payees",
          "type": "address[]"
        },
        {
          "internalType": "uint256[]",
          "name": "shareRatios",
          "type": "uint256[]"
        }
      ],
      "name": "init",
      "outputs": [],
      "stateMutability": "nonpayable",
      "type": "function"
    },
    {
      "inputs": [],
      "name": "owner",
      "outputs": [
        {
          "internalType": "address",
          "name": "",
          "type": "address"
        }
      ],
      "stateMutability": "view",
      "type": "function"
    },
    {
      "inputs": [],
      "name": "renounceOwnership",
      "outputs": [],
      "stateMutability": "nonpayable",
      "type": "function"
    },
    {
      "inputs": [
        {
          "internalType": "bytes32",
          "name": "role",
          "type": "bytes32"
        },
        {
          "internalType": "address",
          "name": "account",
          "type": "address"
        }
      ],
      "name": "renounceRole",
      "outputs": [],
      "stateMutability": "nonpayable",
      "type": "function"
    },
    {
      "inputs": [
        {
          "internalType": "bytes32",
          "name": "role",
          "type": "bytes32"
        },
        {
          "internalType": "address",
          "name": "account",
          "type": "address"
        }
      ],
      "name": "revokeRole",
      "outputs": [],
      "stateMutability": "nonpayable",
      "type": "function"
    },
    {
      "inputs": [
        {
          "internalType": "uint256",
          "name": "insId",
          "type": "uint256"
        }
      ],
      "name": "sign",
      "outputs": [],
      "stateMutability": "nonpayable",
      "type": "function"
    },
    {
      "inputs": [
        {
          "internalType": "uint256",
          "name": "insId",
          "type": "uint256"
        }
      ],
      "name": "start",
      "outputs": [],
      "stateMutability": "nonpayable",
      "type": "function"
    },
    {
      "inputs": [
        {
          "internalType": "address",
          "name": "newOwner",
          "type": "address"
        }
      ],
      "name": "transferOwnership",
      "outputs": [],
      "stateMutability": "nonpayable",
      "type": "function"
    }
  ],
  "bytecode": "0x60806040523480156200001157600080fd5b506040516200186a3803806200186a83398101604081905262000034916200029b565b8060006200004162000133565b600080546001600160a01b0319166001600160a01b0383169081178255604051929350917f8be0079c531659141344cd1fd0a4f28419497f9722a3daafe3b4186f6b6457e0908290a350620000c07fd387004a44187fca6ef23d936cb1f140fa95249dbbe12d279d18fee1c03a9b04620000ba62000133565b62000137565b620000fb6000805160206200184a8339815191527fd387004a44187fca6ef23d936cb1f140fa95249dbbe12d279d18fee1c03a9b0462000147565b6001600160a01b038116156200012657620001266000805160206200184a8339815191528262000137565b50506001600555620002cb565b3390565b62000143828262000199565b5050565b600082815260016020526040808220600201549051839285917fbd79b86ffe0ab8e8776151514217cd7cacd52c909f66475c3af44e129f0b00ff9190a460009182526001602052604090912060020155565b6000828152600160209081526040909120620001c091839062000a8e62000214821b17901c565b156200014357620001d062000133565b6001600160a01b0316816001600160a01b0316837f2f8788117e7eff1d82e926ec794901d17c78024a50270940304540a733656f0d60405160405180910390a45050565b60006200022b836001600160a01b03841662000234565b90505b92915050565b600062000242838362000283565b6200027a575081546001818101845560008481526020808220909301849055845484825282860190935260409020919091556200022e565b5060006200022e565b60009081526001919091016020526040902054151590565b600060208284031215620002ad578081fd5b81516001600160a01b0381168114620002c4578182fd5b9392505050565b61156f80620002db6000396000f3fe608060405234801561001057600080fd5b50600436106101515760003560e01c80639010d07c116100cd578063a2811f1b11610081578063d547741f11610066578063d547741f146102a4578063e4fc992b146102b7578063f2fde38b146102ca57610151565b8063a2811f1b1461027e578063ca15c8731461029157610151565b806395805dad116100b257806395805dad146102505780639b2bd87114610263578063a217fddf1461027657610151565b80639010d07c1461021d57806391d148541461023057610151565b806336568abe116101245780636c02c75c116101095780636c02c75c146101e0578063715018a6146102005780638da5cb5b1461020857610151565b806336568abe146101ba57806348889e85146101cd57610151565b80630ad2452814610156578063248a9ca31461016b5780632f2ff15d146101945780632fb1b25f146101a7575b600080fd5b610169610164366004610f48565b6102dd565b005b61017e610179366004610f48565b6103d4565b60405161018b9190611133565b60405180910390f35b6101696101a2366004610f60565b6103e9565b6101696101b5366004610f48565b610431565b6101696101c8366004610f60565b610570565b61017e6101db366004610fbb565b6105b2565b6101f36101ee366004610f48565b61065f565b60405161018b91906110e4565b610169610683565b61021061070c565b60405161018b91906110d0565b61021061022b366004610f9a565b61071b565b61024361023e366004610f60565b61073c565b60405161018b9190611128565b61016961025e366004610f48565b610754565b61017e610271366004610ff0565b6107e1565b61017e61080d565b61024361028c366004610ff0565b610812565b61017e61029f366004610f48565b610836565b6101696102b2366004610f60565b61084d565b6101696102c536600461101c565b610887565b6101696102d8366004610f2d565b6109ce565b60008181526006602052604090206102f3610aa3565b60018201546001600160a01b0390811691161461032b5760405162461bcd60e51b815260040161032290611295565b60405180910390fd5b6003600482015460ff16600381111561034057fe5b141561035e5760405162461bcd60e51b815260040161032290611497565b6004810180546003919060ff19166001835b021790555060038101546001820154825460048401546040516001600160a01b039093169286927f24d06206893273ae9e566db728ac78f675032c6c56ab8e99b042a0fe45e18c0a926103c89260ff9091169061113c565b60405180910390a45050565b60009081526001602052604090206002015490565b6000828152600160205260409020600201546104079061023e610aa3565b6104235760405162461bcd60e51b815260040161032290611201565b61042d8282610aa7565b5050565b60008181526006602052604090206002600482015460ff16600381111561045457fe5b146104715760405162461bcd60e51b815260040161032290611360565b6001816008016000610481610aa3565b6001600160a01b0316815260208101919091526040016000205460ff1660048111156104a957fe5b146104c65760405162461bcd60e51b8152600401610322906113f4565b60028160080160006104d6610aa3565b6001600160a01b031681526020810191909152604001600020805460ff1916600183600481111561050357fe5b02179055506007810180546001908101909155600382015490820154825460048401546001600160a01b039092169185917f9d372410a25015ddfa0e61c784c63f5ed5b9eb280ddde2aed1cab9ba1570a84f9160ff16610561610aa3565b6040516103c89392919061115a565b610578610aa3565b6001600160a01b0316816001600160a01b0316146105a85760405162461bcd60e51b8152600401610322906114ce565b61042d8282610b10565b60006105e07f710fe53b4ead4eb49a281544d00606284187c1a254e4529cfcf0fb4073a5763c61023e610aa3565b6105fc5760405162461bcd60e51b815260040161032290611188565b60006106086002610b79565b90506106146002610b7d565b60008181526006602052604090206001810180546001600160a01b0319166001600160a01b039590951694909417909355938255506003810191909155600401805460ff1916905590565b600081815260066020526040902060609061067c60098201610b86565b9392505050565b61068b610aa3565b6001600160a01b031661069c61070c565b6001600160a01b0316146106c25760405162461bcd60e51b81526004016103229061142b565b600080546040516001600160a01b03909116907f8be0079c531659141344cd1fd0a4f28419497f9722a3daafe3b4186f6b6457e0908390a3600080546001600160a01b0319169055565b6000546001600160a01b031690565b60008281526001602052604081206107339083610b91565b90505b92915050565b60008281526001602052604081206107339083610b9d565b600081815260066020526040902061076a610aa3565b60018201546001600160a01b039081169116146107995760405162461bcd60e51b815260040161032290611295565b6001600482015460ff1660038111156107ae57fe5b146107cb5760405162461bcd60e51b815260040161032290611329565b6004810180546002919060ff1916600183610370565b60008281526006602090815260408083206001600160a01b0385168452600b0190915290205492915050565b600081565b600091825260066020526040909120600201546001600160a01b0391821691161490565b600081815260016020526040812061073690610bb2565b60008281526001602052604090206002015461086b9061023e610aa3565b6105a85760405162461bcd60e51b815260040161032290611397565b8281146108a65760405162461bcd60e51b81526004016103229061125e565b60008881526006602052604090206108bc610aa3565b60018201546001600160a01b039081169116146108eb5760405162461bcd60e51b815260040161032290611295565b6000600482015460ff16600381111561090057fe5b1461091d5760405162461bcd60e51b81526004016103229061152b565b600060078201556002810180546001600160a01b0319166001600160a01b03881617905561094c818989610bbd565b6109598186868686610c2e565b60048101805460ff1916600190811791829055600383015490830154835460405192936001600160a01b03909216928d927f24d06206893273ae9e566db728ac78f675032c6c56ab8e99b042a0fe45e18c0a926109bb92909160ff169061113c565b60405180910390a4505050505050505050565b6109d6610aa3565b6001600160a01b03166109e761070c565b6001600160a01b031614610a0d5760405162461bcd60e51b81526004016103229061142b565b6001600160a01b038116610a335760405162461bcd60e51b8152600401610322906112cc565b600080546040516001600160a01b03808516939216917f8be0079c531659141344cd1fd0a4f28419497f9722a3daafe3b4186f6b6457e091a3600080546001600160a01b0319166001600160a01b0392909216919091179055565b6000610733836001600160a01b038416610cef565b3390565b6000828152600160205260409020610abf9082610a8e565b1561042d57610acc610aa3565b6001600160a01b0316816001600160a01b0316837f2f8788117e7eff1d82e926ec794901d17c78024a50270940304540a733656f0d60405160405180910390a45050565b6000828152600160205260409020610b289082610d39565b1561042d57610b35610aa3565b6001600160a01b0316816001600160a01b0316837ff6391f5c32d9c69d2a47ea670b442974b53935d1edc7fd64eb21e047a839171b60405160405180910390a45050565b5490565b80546001019055565b606061073682610d4e565b60006107338383610daa565b6000610733836001600160a01b038416610def565b600061073682610b79565b60005b81811015610c28576000838383818110610bd657fe5b9050602002016020810190610beb9190610f2d565b9050610bfa6005860182610a8e565b506001600160a01b031660009081526008850160205260409020805460ff1916600190811790915501610bc0565b50505050565b6000805b84811015610cc4576000868683818110610c4857fe5b9050602002016020810190610c5d9190610f2d565b9050610c6c6009890182610a8e565b50848483818110610c7957fe5b6001600160a01b0384166000908152600b8c01602090815260409091209102929092013590915550848483818110610cad57fe5b602002919091013593909301925050600101610c32565b50612710811115610ce75760405162461bcd60e51b815260040161032290611460565b505050505050565b6000610cfb8383610def565b610d3157508154600181810184556000848152602080822090930184905584548482528286019093526040902091909155610736565b506000610736565b6000610733836001600160a01b038416610e07565b606081600001805480602002602001604051908101604052809291908181526020018280548015610d9e57602002820191906000526020600020905b815481526020019060010190808311610d8a575b50505050509050919050565b81546000908210610dcd5760405162461bcd60e51b8152600401610322906111bf565b826000018281548110610ddc57fe5b9060005260206000200154905092915050565b60009081526001919091016020526040902054151590565b60008181526001830160205260408120548015610ec35783546000198083019190810190600090879083908110610e3a57fe5b9060005260206000200154905080876000018481548110610e5757fe5b600091825260208083209091019290925582815260018981019092526040902090840190558654879080610e8757fe5b60019003818190600052602060002001600090559055866001016000878152602001908152602001600020600090556001945050505050610736565b6000915050610736565b80356001600160a01b038116811461073657600080fd5b60008083601f840112610ef5578182fd5b50813567ffffffffffffffff811115610f0c578182fd5b6020830191508360208083028501011115610f2657600080fd5b9250929050565b600060208284031215610f3e578081fd5b6107338383610ecd565b600060208284031215610f59578081fd5b5035919050565b60008060408385031215610f72578081fd5b8235915060208301356001600160a01b0381168114610f8f578182fd5b809150509250929050565b60008060408385031215610fac578182fd5b50508035926020909101359150565b600080600060608486031215610fcf578081fd5b8335925060208401359150610fe78560408601610ecd565b90509250925092565b60008060408385031215611002578182fd5b823591506110138460208501610ecd565b90509250929050565b60008060008060008060008060a0898b031215611037578384fd5b88359750602089013567ffffffffffffffff80821115611055578586fd5b6110618c838d01610ee4565b90995097508791506110768c60408d01610ecd565b965060608b013591508082111561108b578586fd5b6110978c838d01610ee4565b909650945060808b01359150808211156110af578384fd5b506110bc8b828c01610ee4565b999c989b5096995094979396929594505050565b6001600160a01b0391909116815260200190565b6020808252825182820181905260009190848201906040850190845b8181101561111c57835183529284019291840191600101611100565b50909695505050505050565b901515815260200190565b90815260200190565b828152604081016004831061114d57fe5b8260208301529392505050565b838152606081016004841061116b57fe5b8360208301526001600160a01b0383166040830152949350505050565b6020808252600f908201527f6e6565642061646d696e20726f6c650000000000000000000000000000000000604082015260600190565b60208082526022908201527f456e756d657261626c655365743a20696e646578206f7574206f6620626f756e604082015261647360f01b606082015260800190565b6020808252602f908201527f416363657373436f6e74726f6c3a2073656e646572206d75737420626520616e60408201527f2061646d696e20746f206772616e740000000000000000000000000000000000606082015260800190565b60208082526018908201527f6d75737420616c6c2070617965652068617320726174696f0000000000000000604082015260600190565b6020808252600a908201527f6d757374206f776e657200000000000000000000000000000000000000000000604082015260600190565b60208082526026908201527f4f776e61626c653a206e6577206f776e657220697320746865207a65726f206160408201527f6464726573730000000000000000000000000000000000000000000000000000606082015260800190565b6020808252600b908201527f6d75737420696e69746564000000000000000000000000000000000000000000604082015260600190565b6020808252600c908201527f6d7573742072756e6e696e670000000000000000000000000000000000000000604082015260600190565b60208082526030908201527f416363657373436f6e74726f6c3a2073656e646572206d75737420626520616e60408201527f2061646d696e20746f207265766f6b6500000000000000000000000000000000606082015260800190565b60208082526014908201527f7369676e6572206d757374206e6f74207369676e000000000000000000000000604082015260600190565b6020808252818101527f4f776e61626c653a2063616c6c6572206973206e6f7420746865206f776e6572604082015260600190565b6020808252601c908201527f746f74616c5368617265526174696f206d757374203c3d203130302500000000604082015260600190565b6020808252600d908201527f616c726561647920656e64656400000000000000000000000000000000000000604082015260600190565b6020808252602f908201527f416363657373436f6e74726f6c3a2063616e206f6e6c792072656e6f756e636560408201527f20726f6c657320666f722073656c660000000000000000000000000000000000606082015260800190565b60208082526010908201527f6d757374206265666f726520696e69740000000000000000000000000000000060408201526060019056fea164736f6c634300060c000a710fe53b4ead4eb49a281544d00606284187c1a254e4529cfcf0fb4073a5763c",
  "linkReferences": {},
  "deployedLinkReferences": {}
}