{
  "_format": "hh-sol-artifact-1",
  "contractName": "TZTemplateControl",
  "sourceName": "contracts/TZTemplateControl.sol",
  "abi": [
    {
      "inputs": [],
      "stateMutability": "nonpayable",
      "type": "constructor"
    },
    {
      "anonymous": false,
      "inputs": [
        {
          "indexed": true,
          "internalType": "uint256",
          "name": "templateId",
          "type": "uint256"
        },
        {
          "indexed": true,
          "internalType": "uint256",
          "name": "instanceId",
          "type": "uint256"
        },
        {
          "indexed": true,
          "internalType": "address",
          "name": "payer",
          "type": "address"
        },
        {
          "indexed": false,
          "internalType": "address",
          "name": "template",
          "type": "address"
        },
        {
          "indexed": false,
          "internalType": "address",
          "name": "token",
          "type": "address"
        },
        {
          "indexed": false,
          "internalType": "uint256",
          "name": "income",
          "type": "uint256"
        }
      ],
      "name": "CommissionPaid",
      "type": "event"
    },
    {
      "anonymous": false,
      "inputs": [
        {
          "indexed": true,
          "internalType": "address",
          "name": "previousOwner",
          "type": "address"
        },
        {
          "indexed": true,
          "internalType": "address",
          "name": "newOwner",
          "type": "address"
        }
      ],
      "name": "OwnershipTransferred",
      "type": "event"
    },
    {
      "anonymous": false,
      "inputs": [
        {
          "indexed": true,
          "internalType": "bytes32",
          "name": "role",
          "type": "bytes32"
        },
        {
          "indexed": true,
          "internalType": "bytes32",
          "name": "previousAdminRole",
          "type": "bytes32"
        },
        {
          "indexed": true,
          "internalType": "bytes32",
          "name": "newAdminRole",
          "type": "bytes32"
        }
      ],
      "name": "RoleAdminChanged",
      "type": "event"
    },
    {
      "anonymous": false,
      "inputs": [
        {
          "indexed": true,
          "internalType": "bytes32",
          "name": "role",
          "type": "bytes32"
        },
        {
          "indexed": true,
          "internalType": "address",
          "name": "account",
          "type": "address"
        },
        {
          "indexed": true,
          "internalType": "address",
          "name": "sender",
          "type": "address"
        }
      ],
      "name": "RoleGranted",
      "type": "event"
    },
    {
      "anonymous": false,
      "inputs": [
        {
          "indexed": true,
          "internalType": "bytes32",
          "name": "role",
          "type": "bytes32"
        },
        {
          "indexed": true,
          "internalType": "address",
          "name": "account",
          "type": "address"
        },
        {
          "indexed": true,
          "internalType": "address",
          "name": "sender",
          "type": "address"
        }
      ],
      "name": "RoleRevoked",
      "type": "event"
    },
    {
      "anonymous": false,
      "inputs": [
        {
          "indexed": true,
          "internalType": "uint256",
          "name": "templateId",
          "type": "uint256"
        },
        {
          "indexed": true,
          "internalType": "address",
          "name": "template",
          "type": "address"
        },
        {
          "indexed": true,
          "internalType": "uint256",
          "name": "instanceId",
          "type": "uint256"
        },
        {
          "indexed": false,
          "internalType": "address",
          "name": "owner",
          "type": "address"
        },
        {
          "indexed": false,
          "internalType": "uint256",
          "name": "endTime",
          "type": "uint256"
        },
        {
          "indexed": false,
          "internalType": "bytes32",
          "name": "hash",
          "type": "bytes32"
        }
      ],
      "name": "TzTemplateInstanceCreated",
      "type": "event"
    },
    {
      "anonymous": false,
      "inputs": [
        {
          "indexed": true,
          "internalType": "uint256",
          "name": "templateId",
          "type": "uint256"
        },
        {
          "indexed": true,
          "internalType": "address",
          "name": "owner",
          "type": "address"
        },
        {
          "indexed": false,
          "internalType": "address",
          "name": "template",
          "type": "address"
        },
        {
          "indexed": false,
          "internalType": "uint256",
          "name": "category",
          "type": "uint256"
        }
      ],
      "name": "TzTemplateRegistered",
      "type": "event"
    },
    {
      "anonymous": false,
      "inputs": [
        {
          "indexed": true,
          "internalType": "uint256",
          "name": "templateId",
          "type": "uint256"
        },
        {
          "indexed": true,
          "internalType": "address",
          "name": "owner",
          "type": "address"
        },
        {
          "indexed": false,
          "internalType": "enum TZTemplateControl.TzTemplateControlState",
          "name": "state",
          "type": "uint8"
        }
      ],
      "name": "TzTemplateStateChanged",
      "type": "event"
    },
    {
      "inputs": [],
      "name": "DEFAULT_ADMIN_ROLE",
      "outputs": [
        {
          "internalType": "bytes32",
          "name": "",
          "type": "bytes32"
        }
      ],
      "stateMutability": "view",
      "type": "function"
    },
    {
      "inputs": [
        {
          "internalType": "uint256",
          "name": "templateId",
          "type": "uint256"
        }
      ],
      "name": "end",
      "outputs": [],
      "stateMutability": "nonpayable",
      "type": "function"
    },
    {
      "inputs": [
        {
          "internalType": "bytes32",
          "name": "role",
          "type": "bytes32"
        }
      ],
      "name": "getRoleAdmin",
      "outputs": [
        {
          "internalType": "bytes32",
          "name": "",
          "type": "bytes32"
        }
      ],
      "stateMutability": "view",
      "type": "function"
    },
    {
      "inputs": [
        {
          "internalType": "bytes32",
          "name": "role",
          "type": "bytes32"
        },
        {
          "internalType": "uint256",
          "name": "index",
          "type": "uint256"
        }
      ],
      "name": "getRoleMember",
      "outputs": [
        {
          "internalType": "address",
          "name": "",
          "type": "address"
        }
      ],
      "stateMutability": "view",
      "type": "function"
    },
    {
      "inputs": [
        {
          "internalType": "bytes32",
          "name": "role",
          "type": "bytes32"
        }
      ],
      "name": "getRoleMemberCount",
      "outputs": [
        {
          "internalType": "uint256",
          "name": "",
          "type": "uint256"
        }
      ],
      "stateMutability": "view",
      "type": "function"
    },
    {
      "inputs": [
        {
          "internalType": "uint256",
          "name": "templateId",
          "type": "uint256"
        }
      ],
      "name": "getTemplate",
      "outputs": [
        {
          "internalType": "address",
          "name": "template",
          "type": "address"
        },
        {
          "internalType": "bytes32",
          "name": "name",
          "type": "bytes32"
        },
        {
          "internalType": "uint256",
          "name": "category",
          "type": "uint256"
        },
        {
          "internalType": "address",
          "name": "owner",
          "type": "address"
        },
        {
          "internalType": "uint256",
          "name": "ratio",
          "type": "uint256"
        },
        {
          "internalType": "enum TZTemplateControl.TzTemplateControlState",
          "name": "status",
          "type": "uint8"
        }
      ],
      "stateMutability": "view",
      "type": "function"
    },
    {
      "inputs": [
        {
          "internalType": "bytes32",
          "name": "role",
          "type": "bytes32"
        },
        {
          "internalType": "address",
          "name": "account",
          "type": "address"
        }
      ],
      "name": "grantRole",
      "outputs": [],
      "stateMutability": "nonpayable",
      "type": "function"
    },
    {
      "inputs": [
        {
          "internalType": "bytes32",
          "name": "role",
          "type": "bytes32"
        },
        {
          "internalType": "address",
          "name": "account",
          "type": "address"
        }
      ],
      "name": "hasRole",
      "outputs": [
        {
          "internalType": "bool",
          "name": "",
          "type": "bool"
        }
      ],
      "stateMutability": "view",
      "type": "function"
    },
    {
      "inputs": [
        {
          "internalType": "address",
          "name": "",
          "type": "address"
        }
      ],
      "name": "indexes",
      "outputs": [
        {
          "internalType": "uint256",
          "name": "",
          "type": "uint256"
        }
      ],
      "stateMutability": "view",
      "type": "function"
    },
    {
      "inputs": [],
      "name": "owner",
      "outputs": [
        {
          "internalType": "address",
          "name": "",
          "type": "address"
        }
      ],
      "stateMutability": "view",
      "type": "function"
    },
    {
      "inputs": [
        {
          "internalType": "uint256",
          "name": "templateId",
          "type": "uint256"
        },
        {
          "internalType": "uint256",
          "name": "instanceId",
          "type": "uint256"
        },
        {
          "internalType": "address",
          "name": "token",
          "type": "address"
        },
        {
          "internalType": "uint256",
          "name": "totalIncome",
          "type": "uint256"
        }
      ],
      "name": "pay",
      "outputs": [],
      "stateMutability": "nonpayable",
      "type": "function"
    },
    {
      "inputs": [
        {
          "internalType": "address",
          "name": "template",
          "type": "address"
        },
        {
          "internalType": "uint256",
          "name": "category",
          "type": "uint256"
        },
        {
          "internalType": "bytes32",
          "name": "name",
          "type": "bytes32"
        },
        {
          "internalType": "uint256",
          "name": "ratio",
          "type": "uint256"
        }
      ],
      "name": "register",
      "outputs": [
        {
          "internalType": "uint256",
          "name": "",
          "type": "uint256"
        }
      ],
      "stateMutability": "nonpayable",
      "type": "function"
    },
    {
      "inputs": [],
      "name": "renounceOwnership",
      "outputs": [],
      "stateMutability": "nonpayable",
      "type": "function"
    },
    {
      "inputs": [
        {
          "internalType": "bytes32",
          "name": "role",
          "type": "bytes32"
        },
        {
          "internalType": "address",
          "name": "account",
          "type": "address"
        }
      ],
      "name": "renounceRole",
      "outputs": [],
      "stateMutability": "nonpayable",
      "type": "function"
    },
    {
      "inputs": [
        {
          "internalType": "uint256",
          "name": "templateId",
          "type": "uint256"
        },
        {
          "internalType": "bytes32",
          "name": "hash",
          "type": "bytes32"
        },
        {
          "internalType": "uint256",
          "name": "endTime",
          "type": "uint256"
        }
      ],
      "name": "requestTemplate",
      "outputs": [
        {
          "internalType": "uint256",
          "name": "",
          "type": "uint256"
        }
      ],
      "stateMutability": "nonpayable",
      "type": "function"
    },
    {
      "inputs": [
        {
          "internalType": "bytes32",
          "name": "role",
          "type": "bytes32"
        },
        {
          "internalType": "address",
          "name": "account",
          "type": "address"
        }
      ],
      "name": "revokeRole",
      "outputs": [],
      "stateMutability": "nonpayable",
      "type": "function"
    },
    {
      "inputs": [
        {
          "internalType": "uint256",
          "name": "templateId",
          "type": "uint256"
        }
      ],
      "name": "start",
      "outputs": [],
      "stateMutability": "nonpayable",
      "type": "function"
    },
    {
      "inputs": [
        {
          "internalType": "address",
          "name": "newOwner",
          "type": "address"
        }
      ],
      "name": "transferOwnership",
      "outputs": [],
      "stateMutability": "nonpayable",
      "type": "function"
    }
  ],
  "bytecode": "0x60806040523480156200001157600080fd5b5060006200001e620000f4565b600080546001600160a01b0319166001600160a01b0383169081178255604051929350917f8be0079c531659141344cd1fd0a4f28419497f9722a3daafe3b4186f6b6457e0908290a3506001600255620000a27fd387004a44187fca6ef23d936cb1f140fa95249dbbe12d279d18fee1c03a9b046200009c620000f4565b620000f8565b620000ee7f710fe53b4ead4eb49a281544d00606284187c1a254e4529cfcf0fb4073a5763c7fd387004a44187fca6ef23d936cb1f140fa95249dbbe12d279d18fee1c03a9b0462000108565b6200025c565b3390565b6200010482826200015a565b5050565b600082815260016020526040808220600201549051839285917fbd79b86ffe0ab8e8776151514217cd7cacd52c909f66475c3af44e129f0b00ff9190a460009182526001602052604090912060020155565b60008281526001602090815260409091206200018191839062000d75620001d5821b17901c565b15620001045762000191620000f4565b6001600160a01b0316816001600160a01b0316837f2f8788117e7eff1d82e926ec794901d17c78024a50270940304540a733656f0d60405160405180910390a45050565b6000620001ec836001600160a01b038416620001f5565b90505b92915050565b600062000203838362000244565b6200023b57508154600181810184556000848152602080822090930184905584548482528286019093526040902091909155620001ef565b506000620001ef565b60009081526001919091016020526040902054151590565b611718806200026c6000396000f3fe608060405234801561001057600080fd5b50600436106101365760003560e01c80638da5cb5b116100b2578063a217fddf11610081578063ca15c87311610066578063ca15c8731461027b578063d547741f1461028e578063f2fde38b146102a157610136565b8063a217fddf14610260578063a7e7c09f1461026857610136565b80638da5cb5b146102055780639010d07c1461021a57806391d148541461022d57806395805dad1461024d57610136565b80632db78d931161010957806331543cf4116100ee57806331543cf4146101c557806336568abe146101ea578063715018a6146101fd57610136565b80632db78d931461019f5780632f2ff15d146101b257610136565b80630ad245281461013b5780631960549814610150578063248a9ca314610179578063292b27491461018c575b600080fd5b61014e610149366004611142565b6102b4565b005b61016361015e3660046111cd565b6103a2565b60405161017091906112f9565b60405180910390f35b610163610187366004611142565b6104cb565b61014e61019a3660046111f8565b6104e0565b6101636101ad366004611032565b610937565b61014e6101c036600461115a565b610949565b6101d86101d3366004611142565b610991565b6040516101709695949392919061128e565b61014e6101f836600461115a565b6109db565b61014e610a1d565b61020d610aa6565b6040516101709190611235565b61020d610228366004611194565b610ab5565b61024061023b36600461115a565b610ad6565b60405161017091906112ee565b61014e61025b366004611142565b610aee565b610163610b7b565b61016361027636600461104d565b610b80565b610163610289366004611142565b610c64565b61014e61029c36600461115a565b610c7b565b61014e6102af366004611032565b610cb5565b60008181526005602052604090206102ca610d8a565b60018201546001600160a01b039081169116146103025760405162461bcd60e51b81526004016102f99061149e565b60405180910390fd5b6002600582015460ff16600281111561031757fe5b14156103355760405162461bcd60e51b81526004016102f990611467565b6005810180546002919060ff19166001835b0217905550600181015460058201546040516001600160a01b039092169184917f84f8e7c3c0c2cffd009b5691fa11354e6520d974b0c2d375418ff7ca398d8780916103969160ff1690611321565b60405180910390a35050565b60008381526005602052604081206001600582015460ff1660028111156103c557fe5b146103e25760405162461bcd60e51b81526004016102f9906115d5565b80546000906001600160a01b03166348889e8586866103ff610d8a565b6040518463ffffffff1660e01b815260040161041d93929190611302565b602060405180830381600087803b15801561043757600080fd5b505af115801561044b573d6000803e3d6000fd5b505050506040513d601f19601f8201168201806040525081019061046f91906111b5565b825490915081906001600160a01b0316877f9b2e8f015b6e70ff25e4920d86888f42be96a0724e243789b56929869e485fd36104a9610d8a565b888a6040516104ba9392919061126d565b60405180910390a495945050505050565b60009081526001602052604090206002015490565b6002805414156105025760405162461bcd60e51b81526004016102f99061160c565b6002805560008481526005602052604090206001600582015460ff16600281111561052957fe5b146105465760405162461bcd60e51b81526004016102f9906115d5565b80546001600160a01b031663a2811f1b8561055f610d8a565b6040518363ffffffff1660e01b815260040161057c9291906116a0565b602060405180830381600087803b15801561059657600080fd5b505af11580156105aa573d6000803e3d6000fd5b505050506040513d601f19601f820116820180604052508101906105ce919061111b565b6105ea5760405162461bcd60e51b81526004016102f990611532565b600061271082600301548402816105fd57fe5b04905080831161061f5760405162461bcd60e51b81526004016102f990611569565b6001600160a01b038416156106e357836001600160a01b03166323b872dd610645610d8a565b60018501546040517fffffffff0000000000000000000000000000000000000000000000000000000060e085901b16815261068f92916001600160a01b0316908690600401611249565b602060405180830381600087803b1580156106a957600080fd5b505af11580156106bd573d6000803e3d6000fd5b505050506040513d601f19601f820116820180604052508101906106e1919061111b565b505b8154604051631b00b1d760e21b81526060916001600160a01b031690636c02c75c906107139089906004016112f9565b60006040518083038186803b15801561072b57600080fd5b505afa15801561073f573d6000803e3d6000fd5b505050506040513d6000823e601f3d908101601f191682016040526107679190810190611086565b90508184038060005b83518110156108d757600084828151811061078757fe5b60209081029190910101518754604051639b2bd87160e01b81529192506000916001600160a01b0390911690639b2bd871906107c9908e9086906004016116a0565b60206040518083038186803b1580156107e157600080fd5b505afa1580156107f5573d6000803e3d6000fd5b505050506040513d601f19601f8201168201806040525081019061081991906111b5565b9050612710858202048481111561082d5750835b93849003936001600160a01b038b16156108cc578a6001600160a01b03166323b872dd610858610d8a565b85846040518463ffffffff1660e01b815260040161087893929190611249565b602060405180830381600087803b15801561089257600080fd5b505af11580156108a6573d6000803e3d6000fd5b505050506040513d601f19601f820116820180604052508101906108ca919061111b565b505b505050600101610770565b5084546001600160a01b0316888a7f67c864c1a8ddac42c2a796b6500618866fb8253b52c2a405035ea1af4a3c1cfd61090e610d8a565b8b8b60405161091f93929190611249565b60405180910390a45050600160025550505050505050565b60046020526000908152604090205481565b6000828152600160205260409020600201546109679061023b610d8a565b6109835760405162461bcd60e51b81526004016102f990611376565b61098d8282610d8e565b5050565b60009081526005602081905260409091208054600282015460048301546001840154600385015494909501546001600160a01b03938416969295919493909116929160ff90911690565b6109e3610d8a565b6001600160a01b0316816001600160a01b031614610a135760405162461bcd60e51b81526004016102f990611643565b61098d8282610df7565b610a25610d8a565b6001600160a01b0316610a36610aa6565b6001600160a01b031614610a5c5760405162461bcd60e51b81526004016102f9906115a0565b600080546040516001600160a01b03909116907f8be0079c531659141344cd1fd0a4f28419497f9722a3daafe3b4186f6b6457e0908390a3600080546001600160a01b0319169055565b6000546001600160a01b031690565b6000828152600160205260408120610acd9083610e60565b90505b92915050565b6000828152600160205260408120610acd9083610e6c565b6000818152600560205260409020610b04610d8a565b60018201546001600160a01b03908116911614610b335760405162461bcd60e51b81526004016102f99061149e565b6001600582015460ff166002811115610b4857fe5b1415610b665760405162461bcd60e51b81526004016102f9906113d3565b6005810180546001919060ff19168280610347565b600081565b600080610b8d6003610e81565b9050610b996003610e85565b600081815260056020526040902080546001600160a01b0319166001600160a01b038816178155610bc8610d8a565b6001820180546001600160a01b0319166001600160a01b03928316178155600480840189815560028501899055600385018890558a8416600090815260209290925260409182902086905591548454925491519084169386937f481125ae1b1db1e24234a0f2d238f197cffafe0cc960aecb147cb02107f8e43f93610c52939190921691906112d5565b60405180910390a35095945050505050565b6000818152600160205260408120610ad090610e8e565b600082815260016020526040902060020154610c999061023b610d8a565b610a135760405162461bcd60e51b81526004016102f9906114d5565b610cbd610d8a565b6001600160a01b0316610cce610aa6565b6001600160a01b031614610cf45760405162461bcd60e51b81526004016102f9906115a0565b6001600160a01b038116610d1a5760405162461bcd60e51b81526004016102f99061140a565b600080546040516001600160a01b03808516939216917f8be0079c531659141344cd1fd0a4f28419497f9722a3daafe3b4186f6b6457e091a3600080546001600160a01b0319166001600160a01b0392909216919091179055565b6000610acd836001600160a01b038416610e99565b3390565b6000828152600160205260409020610da69082610d75565b1561098d57610db3610d8a565b6001600160a01b0316816001600160a01b0316837f2f8788117e7eff1d82e926ec794901d17c78024a50270940304540a733656f0d60405160405180910390a45050565b6000828152600160205260409020610e0f9082610ee3565b1561098d57610e1c610d8a565b6001600160a01b0316816001600160a01b0316837ff6391f5c32d9c69d2a47ea670b442974b53935d1edc7fd64eb21e047a839171b60405160405180910390a45050565b6000610acd8383610ef8565b6000610acd836001600160a01b038416610f3d565b5490565b80546001019055565b6000610ad082610e81565b6000610ea58383610f3d565b610edb57508154600181810184556000848152602080822090930184905584548482528286019093526040902091909155610ad0565b506000610ad0565b6000610acd836001600160a01b038416610f55565b81546000908210610f1b5760405162461bcd60e51b81526004016102f990611334565b826000018281548110610f2a57fe5b9060005260206000200154905092915050565b60009081526001919091016020526040902054151590565b600081815260018301602052604081205480156110115783546000198083019190810190600090879083908110610f8857fe5b9060005260206000200154905080876000018481548110610fa557fe5b600091825260208083209091019290925582815260018981019092526040902090840190558654879080610fd557fe5b60019003818190600052602060002001600090559055866001016000878152602001908152602001600020600090556001945050505050610ad0565b6000915050610ad0565b80356001600160a01b0381168114610ad057600080fd5b600060208284031215611043578081fd5b610acd838361101b565b60008060008060808587031215611062578283fd5b61106c868661101b565b966020860135965060408601359560600135945092505050565b60006020808385031215611098578182fd5b825167ffffffffffffffff8111156110ae578283fd5b8301601f810185136110be578283fd5b80516110d16110cc826116de565b6116b7565b81815283810190838501858402850186018910156110ed578687fd5b8694505b8385101561110f5780518352600194909401939185019185016110f1565b50979650505050505050565b60006020828403121561112c578081fd5b8151801515811461113b578182fd5b9392505050565b600060208284031215611153578081fd5b5035919050565b6000806040838503121561116c578182fd5b8235915060208301356001600160a01b0381168114611189578182fd5b809150509250929050565b600080604083850312156111a6578182fd5b50508035926020909101359150565b6000602082840312156111c6578081fd5b5051919050565b6000806000606084860312156111e1578283fd5b505081359360208301359350604090920135919050565b6000806000806080858703121561120d578384fd5b8435935060208501359250611225866040870161101b565b9396929550929360600135925050565b6001600160a01b0391909116815260200190565b6001600160a01b039384168152919092166020820152604081019190915260600190565b6001600160a01b039390931683526020830191909152604082015260600190565b6001600160a01b0387811682526020820187905260408201869052841660608201526080810183905260c081016112c4836116fe565b8260a0830152979650505050505050565b6001600160a01b03929092168252602082015260400190565b901515815260200190565b90815260200190565b92835260208301919091526001600160a01b0316604082015260600190565b6020810161132e836116fe565b91905290565b60208082526022908201527f456e756d657261626c655365743a20696e646578206f7574206f6620626f756e604082015261647360f01b606082015260800190565b6020808252602f908201527f416363657373436f6e74726f6c3a2073656e646572206d75737420626520616e60408201527f2061646d696e20746f206772616e740000000000000000000000000000000000606082015260800190565b60208082526019908201527f74656d706c617465206d757374206e6f742072756e6e696e6700000000000000604082015260600190565b60208082526026908201527f4f776e61626c653a206e6577206f776e657220697320746865207a65726f206160408201527f6464726573730000000000000000000000000000000000000000000000000000606082015260800190565b60208082526016908201527f74656d706c61746520616c726561647920656e64656400000000000000000000604082015260600190565b60208082526017908201527f6d757374206f776e6572206f662074656d706c61746520000000000000000000604082015260600190565b60208082526030908201527f416363657373436f6e74726f6c3a2073656e646572206d75737420626520616e60408201527f2061646d696e20746f207265766f6b6500000000000000000000000000000000606082015260800190565b6020808252600a908201527f6d75737420706179657200000000000000000000000000000000000000000000604082015260600190565b60208082526014908201527f6e6f20656e6f7567682066656520746f20706179000000000000000000000000604082015260600190565b6020808252818101527f4f776e61626c653a2063616c6c6572206973206e6f7420746865206f776e6572604082015260600190565b60208082526015908201527f74656d706c617465206d7573742072756e6e696e670000000000000000000000604082015260600190565b6020808252601f908201527f5265656e7472616e637947756172643a207265656e7472616e742063616c6c00604082015260600190565b6020808252602f908201527f416363657373436f6e74726f6c3a2063616e206f6e6c792072656e6f756e636560408201527f20726f6c657320666f722073656c660000000000000000000000000000000000606082015260800190565b9182526001600160a01b0316602082015260400190565b60405181810167ffffffffffffffff811182821017156116d657600080fd5b604052919050565b600067ffffffffffffffff8211156116f4578081fd5b5060209081020190565b6003811061170857fe5b5056fea164736f6c634300060c000a",
  "linkReferences": {},
  "deployedLinkReferences": {}
}