{
  "_format": "hh-sol-artifact-1",
  "contractName": "Certificate",
  "sourceName": "contracts/certificates/Certificate.sol",
  "abi": [
    {
      "inputs": [
        {
          "internalType": "string",
          "name": "name_",
          "type": "string"
        },
        {
          "internalType": "string",
          "name": "symbol_",
          "type": "string"
        },
        {
          "internalType": "address",
          "name": "option_",
          "type": "address"
        }
      ],
      "stateMutability": "nonpayable",
      "type": "constructor"
    },
    {
      "anonymous": false,
      "inputs": [
        {
          "indexed": true,
          "internalType": "address",
          "name": "owner",
          "type": "address"
        },
        {
          "indexed": true,
          "internalType": "address",
          "name": "approved",
          "type": "address"
        },
        {
          "indexed": true,
          "internalType": "uint256",
          "name": "tokenId",
          "type": "uint256"
        }
      ],
      "name": "Approval",
      "type": "event"
    },
    {
      "anonymous": false,
      "inputs": [
        {
          "indexed": true,
          "internalType": "address",
          "name": "owner",
          "type": "address"
        },
        {
          "indexed": true,
          "internalType": "address",
          "name": "operator",
          "type": "address"
        },
        {
          "indexed": false,
          "internalType": "bool",
          "name": "approved",
          "type": "bool"
        }
      ],
      "name": "ApprovalForAll",
      "type": "event"
    },
    {
      "anonymous": false,
      "inputs": [
        {
          "indexed": true,
          "internalType": "address",
          "name": "previousOwner",
          "type": "address"
        },
        {
          "indexed": true,
          "internalType": "address",
          "name": "newOwner",
          "type": "address"
        }
      ],
      "name": "OwnershipTransferred",
      "type": "event"
    },
    {
      "anonymous": false,
      "inputs": [
        {
          "indexed": false,
          "internalType": "address",
          "name": "account",
          "type": "address"
        }
      ],
      "name": "Paused",
      "type": "event"
    },
    {
      "anonymous": false,
      "inputs": [
        {
          "indexed": true,
          "internalType": "bytes32",
          "name": "role",
          "type": "bytes32"
        },
        {
          "indexed": true,
          "internalType": "bytes32",
          "name": "previousAdminRole",
          "type": "bytes32"
        },
        {
          "indexed": true,
          "internalType": "bytes32",
          "name": "newAdminRole",
          "type": "bytes32"
        }
      ],
      "name": "RoleAdminChanged",
      "type": "event"
    },
    {
      "anonymous": false,
      "inputs": [
        {
          "indexed": true,
          "internalType": "bytes32",
          "name": "role",
          "type": "bytes32"
        },
        {
          "indexed": true,
          "internalType": "address",
          "name": "account",
          "type": "address"
        },
        {
          "indexed": true,
          "internalType": "address",
          "name": "sender",
          "type": "address"
        }
      ],
      "name": "RoleGranted",
      "type": "event"
    },
    {
      "anonymous": false,
      "inputs": [
        {
          "indexed": true,
          "internalType": "bytes32",
          "name": "role",
          "type": "bytes32"
        },
        {
          "indexed": true,
          "internalType": "address",
          "name": "account",
          "type": "address"
        },
        {
          "indexed": true,
          "internalType": "address",
          "name": "sender",
          "type": "address"
        }
      ],
      "name": "RoleRevoked",
      "type": "event"
    },
    {
      "anonymous": false,
      "inputs": [
        {
          "indexed": true,
          "internalType": "address",
          "name": "from",
          "type": "address"
        },
        {
          "indexed": true,
          "internalType": "address",
          "name": "to",
          "type": "address"
        },
        {
          "indexed": true,
          "internalType": "uint256",
          "name": "tokenId",
          "type": "uint256"
        }
      ],
      "name": "Transfer",
      "type": "event"
    },
    {
      "anonymous": false,
      "inputs": [
        {
          "indexed": false,
          "internalType": "address",
          "name": "account",
          "type": "address"
        }
      ],
      "name": "Unpaused",
      "type": "event"
    },
    {
      "inputs": [],
      "name": "DEFAULT_ADMIN_ROLE",
      "outputs": [
        {
          "internalType": "bytes32",
          "name": "",
          "type": "bytes32"
        }
      ],
      "stateMutability": "view",
      "type": "function"
    },
    {
      "inputs": [],
      "name": "MINTER_ROLE",
      "outputs": [
        {
          "internalType": "bytes32",
          "name": "",
          "type": "bytes32"
        }
      ],
      "stateMutability": "view",
      "type": "function"
    },
    {
      "inputs": [],
      "name": "PAUSER_ROLE",
      "outputs": [
        {
          "internalType": "bytes32",
          "name": "",
          "type": "bytes32"
        }
      ],
      "stateMutability": "view",
      "type": "function"
    },
    {
      "inputs": [
        {
          "internalType": "address",
          "name": "m",
          "type": "address"
        }
      ],
      "name": "addMintRole",
      "outputs": [],
      "stateMutability": "nonpayable",
      "type": "function"
    },
    {
      "inputs": [
        {
          "internalType": "address",
          "name": "to",
          "type": "address"
        },
        {
          "internalType": "uint256",
          "name": "tokenId",
          "type": "uint256"
        }
      ],
      "name": "approve",
      "outputs": [],
      "stateMutability": "nonpayable",
      "type": "function"
    },
    {
      "inputs": [
        {
          "internalType": "address",
          "name": "to",
          "type": "address"
        },
        {
          "internalType": "uint256",
          "name": "originalTokenId",
          "type": "uint256"
        }
      ],
      "name": "authorize",
      "outputs": [
        {
          "internalType": "uint256",
          "name": "tokenId",
          "type": "uint256"
        }
      ],
      "stateMutability": "nonpayable",
      "type": "function"
    },
    {
      "inputs": [
        {
          "internalType": "address",
          "name": "to",
          "type": "address"
        },
        {
          "internalType": "uint256",
          "name": "originalTokenId",
          "type": "uint256"
        },
        {
          "internalType": "uint256",
          "name": "optionTokenId",
          "type": "uint256"
        }
      ],
      "name": "authorizeOption",
      "outputs": [
        {
          "internalType": "uint256",
          "name": "tokenId",
          "type": "uint256"
        }
      ],
      "stateMutability": "nonpayable",
      "type": "function"
    },
    {
      "inputs": [
        {
          "internalType": "address",
          "name": "owner",
          "type": "address"
        }
      ],
      "name": "balanceOf",
      "outputs": [
        {
          "internalType": "uint256",
          "name": "",
          "type": "uint256"
        }
      ],
      "stateMutability": "view",
      "type": "function"
    },
    {
      "inputs": [],
      "name": "baseURI",
      "outputs": [
        {
          "internalType": "string",
          "name": "",
          "type": "string"
        }
      ],
      "stateMutability": "view",
      "type": "function"
    },
    {
      "inputs": [],
      "name": "baseUri",
      "outputs": [
        {
          "internalType": "string",
          "name": "",
          "type": "string"
        }
      ],
      "stateMutability": "view",
      "type": "function"
    },
    {
      "inputs": [
        {
          "internalType": "address",
          "name": "option_",
          "type": "address"
        }
      ],
      "name": "bindOption",
      "outputs": [],
      "stateMutability": "nonpayable",
      "type": "function"
    },
    {
      "inputs": [
        {
          "internalType": "uint256",
          "name": "tokenId",
          "type": "uint256"
        }
      ],
      "name": "burn",
      "outputs": [],
      "stateMutability": "nonpayable",
      "type": "function"
    },
    {
      "inputs": [
        {
          "internalType": "address",
          "name": "to",
          "type": "address"
        },
        {
          "internalType": "uint256",
          "name": "originalTokenId",
          "type": "uint256"
        },
        {
          "internalType": "uint256",
          "name": "price",
          "type": "uint256"
        },
        {
          "internalType": "uint256",
          "name": "effectDate",
          "type": "uint256"
        }
      ],
      "name": "createOption",
      "outputs": [
        {
          "internalType": "uint256",
          "name": "tokenId",
          "type": "uint256"
        }
      ],
      "stateMutability": "nonpayable",
      "type": "function"
    },
    {
      "inputs": [
        {
          "internalType": "uint256",
          "name": "tokenId",
          "type": "uint256"
        }
      ],
      "name": "getApproved",
      "outputs": [
        {
          "internalType": "address",
          "name": "",
          "type": "address"
        }
      ],
      "stateMutability": "view",
      "type": "function"
    },
    {
      "inputs": [
        {
          "internalType": "bytes32",
          "name": "role",
          "type": "bytes32"
        }
      ],
      "name": "getRoleAdmin",
      "outputs": [
        {
          "internalType": "bytes32",
          "name": "",
          "type": "bytes32"
        }
      ],
      "stateMutability": "view",
      "type": "function"
    },
    {
      "inputs": [
        {
          "internalType": "bytes32",
          "name": "role",
          "type": "bytes32"
        },
        {
          "internalType": "uint256",
          "name": "index",
          "type": "uint256"
        }
      ],
      "name": "getRoleMember",
      "outputs": [
        {
          "internalType": "address",
          "name": "",
          "type": "address"
        }
      ],
      "stateMutability": "view",
      "type": "function"
    },
    {
      "inputs": [
        {
          "internalType": "bytes32",
          "name": "role",
          "type": "bytes32"
        }
      ],
      "name": "getRoleMemberCount",
      "outputs": [
        {
          "internalType": "uint256",
          "name": "",
          "type": "uint256"
        }
      ],
      "stateMutability": "view",
      "type": "function"
    },
    {
      "inputs": [
        {
          "internalType": "bytes32",
          "name": "role",
          "type": "bytes32"
        },
        {
          "internalType": "address",
          "name": "account",
          "type": "address"
        }
      ],
      "name": "grantRole",
      "outputs": [],
      "stateMutability": "nonpayable",
      "type": "function"
    },
    {
      "inputs": [
        {
          "internalType": "bytes32",
          "name": "role",
          "type": "bytes32"
        },
        {
          "internalType": "address",
          "name": "account",
          "type": "address"
        }
      ],
      "name": "hasRole",
      "outputs": [
        {
          "internalType": "bool",
          "name": "",
          "type": "bool"
        }
      ],
      "stateMutability": "view",
      "type": "function"
    },
    {
      "inputs": [
        {
          "internalType": "address",
          "name": "owner",
          "type": "address"
        },
        {
          "internalType": "address",
          "name": "operator",
          "type": "address"
        }
      ],
      "name": "isApprovedForAll",
      "outputs": [
        {
          "internalType": "bool",
          "name": "",
          "type": "bool"
        }
      ],
      "stateMutability": "view",
      "type": "function"
    },
    {
      "inputs": [
        {
          "internalType": "uint256",
          "name": "tokenId",
          "type": "uint256"
        },
        {
          "internalType": "address",
          "name": "operator",
          "type": "address"
        }
      ],
      "name": "isAuthorizeApproved",
      "outputs": [
        {
          "internalType": "bool",
          "name": "",
          "type": "bool"
        }
      ],
      "stateMutability": "view",
      "type": "function"
    },
    {
      "inputs": [
        {
          "internalType": "address",
          "name": "to",
          "type": "address"
        }
      ],
      "name": "mint",
      "outputs": [],
      "stateMutability": "nonpayable",
      "type": "function"
    },
    {
      "inputs": [
        {
          "internalType": "address",
          "name": "to",
          "type": "address"
        }
      ],
      "name": "mintUntradeable",
      "outputs": [],
      "stateMutability": "nonpayable",
      "type": "function"
    },
    {
      "inputs": [],
      "name": "name",
      "outputs": [
        {
          "internalType": "string",
          "name": "",
          "type": "string"
        }
      ],
      "stateMutability": "view",
      "type": "function"
    },
    {
      "inputs": [],
      "name": "owner",
      "outputs": [
        {
          "internalType": "address",
          "name": "",
          "type": "address"
        }
      ],
      "stateMutability": "view",
      "type": "function"
    },
    {
      "inputs": [
        {
          "internalType": "uint256",
          "name": "tokenId",
          "type": "uint256"
        }
      ],
      "name": "ownerOf",
      "outputs": [
        {
          "internalType": "address",
          "name": "",
          "type": "address"
        }
      ],
      "stateMutability": "view",
      "type": "function"
    },
    {
      "inputs": [],
      "name": "pause",
      "outputs": [],
      "stateMutability": "nonpayable",
      "type": "function"
    },
    {
      "inputs": [],
      "name": "paused",
      "outputs": [
        {
          "internalType": "bool",
          "name": "",
          "type": "bool"
        }
      ],
      "stateMutability": "view",
      "type": "function"
    },
    {
      "inputs": [
        {
          "internalType": "address",
          "name": "to",
          "type": "address"
        },
        {
          "internalType": "uint256[]",
          "name": "refTokenIds",
          "type": "uint256[]"
        }
      ],
      "name": "recreate",
      "outputs": [
        {
          "internalType": "uint256",
          "name": "tokenId",
          "type": "uint256"
        }
      ],
      "stateMutability": "nonpayable",
      "type": "function"
    },
    {
      "inputs": [
        {
          "internalType": "address",
          "name": "to",
          "type": "address"
        },
        {
          "internalType": "uint256[]",
          "name": "chainIds",
          "type": "uint256[]"
        },
        {
          "internalType": "address[]",
          "name": "certificates",
          "type": "address[]"
        },
        {
          "internalType": "uint256[]",
          "name": "refTokenIds",
          "type": "uint256[]"
        }
      ],
      "name": "recreateCrossChain",
      "outputs": [
        {
          "internalType": "uint256",
          "name": "tokenId",
          "type": "uint256"
        }
      ],
      "stateMutability": "nonpayable",
      "type": "function"
    },
    {
      "inputs": [
        {
          "internalType": "address",
          "name": "to",
          "type": "address"
        },
        {
          "internalType": "address[]",
          "name": "certificates",
          "type": "address[]"
        },
        {
          "internalType": "uint256[]",
          "name": "refTokenIds",
          "type": "uint256[]"
        }
      ],
      "name": "recreateInChain",
      "outputs": [
        {
          "internalType": "uint256",
          "name": "tokenId",
          "type": "uint256"
        }
      ],
      "stateMutability": "nonpayable",
      "type": "function"
    },
    {
      "inputs": [
        {
          "internalType": "uint256",
          "name": "",
          "type": "uint256"
        }
      ],
      "name": "recreations",
      "outputs": [
        {
          "internalType": "uint256",
          "name": "tokenId",
          "type": "uint256"
        }
      ],
      "stateMutability": "view",
      "type": "function"
    },
    {
      "inputs": [],
      "name": "renounceOwnership",
      "outputs": [],
      "stateMutability": "nonpayable",
      "type": "function"
    },
    {
      "inputs": [
        {
          "internalType": "bytes32",
          "name": "role",
          "type": "bytes32"
        },
        {
          "internalType": "address",
          "name": "account",
          "type": "address"
        }
      ],
      "name": "renounceRole",
      "outputs": [],
      "stateMutability": "nonpayable",
      "type": "function"
    },
    {
      "inputs": [
        {
          "internalType": "bytes32",
          "name": "role",
          "type": "bytes32"
        },
        {
          "internalType": "address",
          "name": "account",
          "type": "address"
        }
      ],
      "name": "revokeRole",
      "outputs": [],
      "stateMutability": "nonpayable",
      "type": "function"
    },
    {
      "inputs": [
        {
          "internalType": "address",
          "name": "from",
          "type": "address"
        },
        {
          "internalType": "address",
          "name": "to",
          "type": "address"
        },
        {
          "internalType": "uint256",
          "name": "tokenId",
          "type": "uint256"
        }
      ],
      "name": "safeTransferFrom",
      "outputs": [],
      "stateMutability": "nonpayable",
      "type": "function"
    },
    {
      "inputs": [
        {
          "internalType": "address",
          "name": "from",
          "type": "address"
        },
        {
          "internalType": "address",
          "name": "to",
          "type": "address"
        },
        {
          "internalType": "uint256",
          "name": "tokenId",
          "type": "uint256"
        },
        {
          "internalType": "bytes",
          "name": "_data",
          "type": "bytes"
        }
      ],
      "name": "safeTransferFrom",
      "outputs": [],
      "stateMutability": "nonpayable",
      "type": "function"
    },
    {
      "inputs": [
        {
          "internalType": "address",
          "name": "operator",
          "type": "address"
        },
        {
          "internalType": "bool",
          "name": "approved",
          "type": "bool"
        }
      ],
      "name": "setApprovalForAll",
      "outputs": [],
      "stateMutability": "nonpayable",
      "type": "function"
    },
    {
      "inputs": [
        {
          "internalType": "uint256",
          "name": "tokenId",
          "type": "uint256"
        },
        {
          "internalType": "address",
          "name": "operator",
          "type": "address"
        },
        {
          "internalType": "bool",
          "name": "approved",
          "type": "bool"
        }
      ],
      "name": "setAuthorizeApproval",
      "outputs": [],
      "stateMutability": "nonpayable",
      "type": "function"
    },
    {
      "inputs": [
        {
          "internalType": "bytes4",
          "name": "interfaceId",
          "type": "bytes4"
        }
      ],
      "name": "supportsInterface",
      "outputs": [
        {
          "internalType": "bool",
          "name": "",
          "type": "bool"
        }
      ],
      "stateMutability": "view",
      "type": "function"
    },
    {
      "inputs": [],
      "name": "symbol",
      "outputs": [
        {
          "internalType": "string",
          "name": "",
          "type": "string"
        }
      ],
      "stateMutability": "view",
      "type": "function"
    },
    {
      "inputs": [
        {
          "internalType": "uint256",
          "name": "index",
          "type": "uint256"
        }
      ],
      "name": "tokenByIndex",
      "outputs": [
        {
          "internalType": "uint256",
          "name": "",
          "type": "uint256"
        }
      ],
      "stateMutability": "view",
      "type": "function"
    },
    {
      "inputs": [
        {
          "internalType": "uint256",
          "name": "",
          "type": "uint256"
        }
      ],
      "name": "tokenIdMapping",
      "outputs": [
        {
          "internalType": "uint256",
          "name": "",
          "type": "uint256"
        }
      ],
      "stateMutability": "view",
      "type": "function"
    },
    {
      "inputs": [
        {
          "internalType": "address",
          "name": "owner",
          "type": "address"
        },
        {
          "internalType": "uint256",
          "name": "index",
          "type": "uint256"
        }
      ],
      "name": "tokenOfOwnerByIndex",
      "outputs": [
        {
          "internalType": "uint256",
          "name": "",
          "type": "uint256"
        }
      ],
      "stateMutability": "view",
      "type": "function"
    },
    {
      "inputs": [
        {
          "internalType": "uint256",
          "name": "tokenId",
          "type": "uint256"
        }
      ],
      "name": "tokenURI",
      "outputs": [
        {
          "internalType": "string",
          "name": "",
          "type": "string"
        }
      ],
      "stateMutability": "view",
      "type": "function"
    },
    {
      "inputs": [],
      "name": "totalSupply",
      "outputs": [
        {
          "internalType": "uint256",
          "name": "",
          "type": "uint256"
        }
      ],
      "stateMutability": "view",
      "type": "function"
    },
    {
      "inputs": [
        {
          "internalType": "address",
          "name": "from",
          "type": "address"
        },
        {
          "internalType": "address",
          "name": "to",
          "type": "address"
        },
        {
          "internalType": "uint256",
          "name": "tokenId",
          "type": "uint256"
        }
      ],
      "name": "transferFrom",
      "outputs": [],
      "stateMutability": "nonpayable",
      "type": "function"
    },
    {
      "inputs": [
        {
          "internalType": "address",
          "name": "newOwner",
          "type": "address"
        }
      ],
      "name": "transferOwnership",
      "outputs": [],
      "stateMutability": "nonpayable",
      "type": "function"
    },
    {
      "inputs": [],
      "name": "unpause",
      "outputs": [],
      "stateMutability": "nonpayable",
      "type": "function"
    },
    {
      "inputs": [
        {
          "internalType": "string",
          "name": "uri",
          "type": "string"
        }
      ],
      "name": "updateBaseUri",
      "outputs": [],
      "stateMutability": "nonpayable",
      "type": "function"
    },
    {
      "inputs": [
        {
          "internalType": "uint256",
          "name": "tokenId",
          "type": "uint256"
        },
        {
          "internalType": "bytes32",
          "name": "hash",
          "type": "bytes32"
        }
      ],
      "name": "updateHash",
      "outputs": [],
      "stateMutability": "nonpayable",
      "type": "function"
    },
    {
      "inputs": [
        {
          "internalType": "uint256",
          "name": "tokenId",
          "type": "uint256"
        },
        {
          "internalType": "uint256",
          "name": "originalTokenId",
          "type": "uint256"
        }
      ],
      "name": "updateTokenIdMapping",
      "outputs": [
        {
          "internalType": "bool",
          "name": "",
          "type": "bool"
        }
      ],
      "stateMutability": "nonpayable",
      "type": "function"
    },
    {
      "inputs": [
        {
          "internalType": "uint256",
          "name": "tokenId",
          "type": "uint256"
        },
        {
          "internalType": "bytes32",
          "name": "hash",
          "type": "bytes32"
        }
      ],
      "name": "verifyHash",
      "outputs": [
        {
          "internalType": "bool",
          "name": "",
          "type": "bool"
        }
      ],
      "stateMutability": "view",
      "type": "function"
    },
    {
      "inputs": [
        {
          "internalType": "uint256",
          "name": "tokenId",
          "type": "uint256"
        },
        {
          "internalType": "address",
          "name": "who",
          "type": "address"
        }
      ],
      "name": "verifyOwner",
      "outputs": [
        {
          "internalType": "bool",
          "name": "",
          "type": "bool"
        }
      ],
      "stateMutability": "view",
      "type": "function"
    }
  ],
  "bytecode": "0x60806040523480156200001157600080fd5b50604051620042433803806200424383398101604081905262000034916200049e565b82828181604051806020016040528060008152508282620000626301ffc9a760e01b620001e960201b60201c565b8151620000779060079060208501906200035b565b5080516200008d9060089060208401906200035b565b50620000a06380ac58cd60e01b620001e9565b620000b2635b5e139f60e01b620001e9565b620000c463780e9d6360e01b620001e9565b5050600f805460ff191690558051620000e59060119060208401906200035b565b50620000fc6000620000f662000247565b6200024b565b6200012b7f9f2df0fed2c77648de5860a4cc508cd0818c85b8b8a1ab4ceeef8d981c8956a6620000f662000247565b6200015a7f65d7a28e3265b37a6474929f336521b332c1681b933f6cb9f3376673440d862a620000f662000247565b50505060006200016f6200024760201b60201c565b601380546001600160a01b0319166001600160a01b038316908117909155604051919250906000907f8be0079c531659141344cd1fd0a4f28419497f9722a3daafe3b4186f6b6457e0908290a35050601980546001600160a01b0319166001600160a01b039390931692909217909155506200055e915050565b6001600160e01b031980821614156200021f5760405162461bcd60e51b8152600401620002169062000527565b60405180910390fd5b6001600160e01b0319166000908152600160208190526040909120805460ff19169091179055565b3390565b6200025782826200025b565b5050565b60008281526020818152604090912062000280918390620019eb620002d4821b17901c565b1562000257576200029062000247565b6001600160a01b0316816001600160a01b0316837f2f8788117e7eff1d82e926ec794901d17c78024a50270940304540a733656f0d60405160405180910390a45050565b6000620002eb836001600160a01b038416620002f4565b90505b92915050565b600062000302838362000343565b6200033a57508154600181810184556000848152602080822090930184905584548482528286019093526040902091909155620002ee565b506000620002ee565b60009081526001919091016020526040902054151590565b828054600181600116156101000203166002900490600052602060002090601f016020900481019282601f106200039e57805160ff1916838001178555620003ce565b82800160010185558215620003ce579182015b82811115620003ce578251825591602001919060010190620003b1565b50620003dc929150620003e0565b5090565b5b80821115620003dc5760008155600101620003e1565b600082601f83011262000408578081fd5b81516001600160401b03808211156200041f578283fd5b6040516020601f8401601f191682018101838111838210171562000441578586fd5b806040525081945083825286818588010111156200045e57600080fd5b600092505b8383101562000482578583018101518284018201529182019162000463565b83831115620004945760008185840101525b5050505092915050565b600080600060608486031215620004b3578283fd5b83516001600160401b0380821115620004ca578485fd5b620004d887838801620003f7565b94506020860151915080821115620004ee578384fd5b50620004fd86828701620003f7565b604086015190935090506001600160a01b03811681146200051c578182fd5b809150509250925092565b6020808252601c908201527f4552433136353a20696e76616c696420696e7465726661636520696400000000604082015260600190565b613cd5806200056e6000396000f3fe608060405234801561001057600080fd5b50600436106103625760003560e01c806383c97ff9116101c8578063c1dbd9b211610104578063e4c1604e116100a2578063e985e9c51161007c578063e985e9c5146106cd578063ec06d73b146106e0578063f2fde38b146106f3578063fe8fb2cc1461070657610362565b8063e4c1604e1461069f578063e54531ff146106b2578063e63ab1e9146106c557610362565b8063d5391393116100de578063d53913931461065e578063d547741f14610666578063d5b2e2ea14610679578063de4de46d1461068c57610362565b8063c1dbd9b214610625578063c87b56dd14610638578063ca15c8731461064b57610362565b80639abc832011610171578063a22cb4651161014b578063a22cb465146105d9578063a484fa79146105ec578063b1f52e80146105ff578063b88d4fde1461061257610362565b80639abc8320146105b65780639f68de1b146105be578063a217fddf146105d157610362565b80639010d07c116101a25780639010d07c1461058857806391d148541461059b57806395d89b41146105ae57610362565b806383c97ff9146105655780638456cb59146105785780638da5cb5b1461058057610362565b80633719d385116102a25780635c975abb116102405780636c0360eb1161021a5780636c0360eb1461052f57806370a0823114610537578063715018a61461054a578063725116c81461055257610362565b80635c975abb146105015780636352211e146105095780636a6278421461051c57610362565b806342842e0e1161027c57806342842e0e146104b557806342966c68146104c85780634f6ccce7146104db5780635b884916146104ee57610362565b80633719d3851461048757806339f7e37f1461049a5780633f4ba83a146104ad57610362565b806318160ddd1161030f578063248a9ca3116102e9578063248a9ca31461043b5780632f2ff15d1461044e5780632f745c591461046157806336568abe1461047457610362565b806318160ddd1461040d57806320275ee31461041557806323b872dd1461042857610362565b8063095ea7b311610340578063095ea7b3146103c55780630cbca658146103da57806317e11c1b146103fa57610362565b806301ffc9a71461036757806306fdde0314610390578063081812fc146103a5575b600080fd5b61037a610375366004612ee6565b610719565b60405161038791906130c1565b60405180910390f35b61039861072c565b60405161038791906130d5565b6103b86103b3366004612e7e565b6107c2565b6040516103879190613040565b6103d86103d3366004612de7565b61080e565b005b6103ed6103e8366004612e44565b6108a6565b60405161038791906130cc565b6103ed610408366004612cc0565b610979565b6103ed610a61565b61037a610423366004612f69565b610a67565b6103d8610436366004612b99565b610a8f565b6103ed610449366004612e7e565b610ac7565b6103d861045c366004612e96565b610adc565b6103ed61046f366004612de7565b610b24565b6103d8610482366004612e96565b610b76565b6103ed610495366004612d13565b610bb8565b6103d86104a8366004612f1e565b610cd5565b6103d8610d27565b6103d86104c3366004612b99565b610d79565b6103d86104d6366004612e7e565b610d94565b6103ed6104e9366004612e7e565b610dc7565b6103ed6104fc366004612e11565b610e0e565b61037a610e7c565b6103b8610517366004612e7e565b610e85565b6103d861052a366004612b4a565b610ead565b610398610f12565b6103ed610545366004612b4a565b610f73565b6103d8610fbc565b6103d8610560366004612b4a565b611045565b61037a610573366004612f69565b6110b7565b6103d86110e2565b6103b8611132565b6103b8610596366004612ec5565b611141565b61037a6105a9366004612e96565b611160565b610398611178565b6103986111d9565b6103d86105cc366004612b4a565b611267565b6103ed6112f6565b6103d86105e7366004612dbc565b6112fb565b61037a6105fa366004612ec5565b6113c9565b6103d861060d366004612ec5565b611435565b6103d8610620366004612bd9565b6114b1565b6103ed610633366004612de7565b6114f0565b610398610646366004612e7e565b61158c565b6103ed610659366004612e7e565b611638565b6103ed61164f565b6103d8610674366004612e96565b611673565b6103ed610687366004612e7e565b6116ad565b6103d861069a366004612f8c565b6116bf565b6103ed6106ad366004612e7e565b61175a565b6103d86106c0366004612b4a565b61176f565b6103ed6117ba565b61037a6106db366004612b65565b6117de565b61037a6106ee366004612ec5565b61180c565b6103d8610701366004612b4a565b611820565b6103ed610714366004612c41565b6118e1565b600061072482611a00565b90505b919050565b60078054604080516020601f60026000196101006001881615020190951694909404938401819004810282018101909252828152606093909290918301828280156107b85780601f1061078d576101008083540402835291602001916107b8565b820191906000526020600020905b81548152906001019060200180831161079b57829003601f168201915b5050505050905090565b60006107cd82611a25565b6107f25760405162461bcd60e51b81526004016107e99061377a565b60405180910390fd5b506000908152600560205260409020546001600160a01b031690565b600061081982610e85565b9050806001600160a01b0316836001600160a01b0316141561084d5760405162461bcd60e51b81526004016107e9906138b5565b806001600160a01b031661085f611a32565b6001600160a01b0316148061087b575061087b816106db611a32565b6108975760405162461bcd60e51b81526004016107e990613654565b6108a18383611a36565b505050565b60006108b96108b3611a32565b85611aa4565b6108d55760405162461bcd60e51b81526004016107e990613b93565b60195460405162448d8d60e91b81526001600160a01b039091169063891b1a009061090c9088903090899089908990600401613090565b602060405180830381600087803b15801561092657600080fd5b505af115801561093a573d6000803e3d6000fd5b505050506040513d601f19601f8201168201806040525081019061095e9190612f51565b6000818152601a602052604090209490945550919392505050565b60006109856010611b21565b90506109918482611b25565b61099b6010611be9565b6000818152601760205260408120905b83811015610a585760008260000182815481106109c457fe5b6000918252602082206003909102019190915582548390839081106109e557fe5b906000526020600020906003020160010160006101000a8154816001600160a01b0302191690836001600160a01b03160217905550848482818110610a2657fe5b90506020020135826000018281548110610a3c57fe5b60009182526020909120600260039092020101556001016109ab565b50509392505050565b600d5490565b6000816001600160a01b0316610a7c84610e85565b6001600160a01b03161490505b92915050565b610aa0610a9a611a32565b82611aa4565b610abc5760405162461bcd60e51b81526004016107e9906138f6565b6108a1838383611bf2565b60009081526020819052604090206002015490565b600082815260208190526040902060020154610afa906105a9611a32565b610b165760405162461bcd60e51b81526004016107e990613161565b610b208282611d00565b5050565b6000610b2f83610f73565b8210610b4d5760405162461bcd60e51b81526004016107e99061322c565b506001600160a01b03919091166000908152600b60209081526040808320938352929052205490565b610b7e611a32565b6001600160a01b0316816001600160a01b031614610bae5760405162461bcd60e51b81526004016107e990613b36565b610b208282611d69565b6000610bc46010611b21565b9050610bd08882611b25565b610bda6010611be9565b6000818152601760205260408120905b83811015610cc857888882818110610bfe57fe5b90506020020135826000018281548110610c1457fe5b6000918252602090912060039091020155868682818110610c3157fe5b9050602002016020810190610c469190612b4a565b826000018281548110610c5557fe5b906000526020600020906003020160010160006101000a8154816001600160a01b0302191690836001600160a01b03160217905550848482818110610c9657fe5b90506020020135826000018281548110610cac57fe5b6000918252602090912060026003909202010155600101610bea565b5050979650505050505050565b610cdd611a32565b6001600160a01b0316610cee611132565b6001600160a01b031614610d145760405162461bcd60e51b81526004016107e9906137c6565b8051610b20906014906020840190612989565b610d537f65d7a28e3265b37a6474929f336521b332c1681b933f6cb9f3376673440d862a6105a9611a32565b610d6f5760405162461bcd60e51b81526004016107e990613ad8565b610d77611dd2565b565b6108a1838383604051806020016040528060008152506114b1565b610d9f610a9a611a32565b610dbb5760405162461bcd60e51b81526004016107e990613a7b565b610dc481611e40565b50565b6000610dd1610a61565b8210610def5760405162461bcd60e51b81526004016107e99061398a565b600d8281548110610dfc57fe5b90600052602060002001549050919050565b6000818152601a60205260408120548314610e3b5760405162461bcd60e51b81526004016107e990613452565b610e456010611b21565b9050610e518482611b25565b610e5b6010611be9565b610e6581846113c9565b506000818152601a60205260408120559392505050565b600f5460ff1690565b600061072482604051806060016040528060298152602001613ca06029913960039190611f0d565b610ed97f9f2df0fed2c77648de5860a4cc508cd0818c85b8b8a1ab4ceeef8d981c8956a66105a9611a32565b610ef55760405162461bcd60e51b81526004016107e990613a1e565b610f0881610f036010611b21565b611b25565b610dc46010611be9565b600a8054604080516020601f60026000196101006001881615020190951694909404938401819004810282018101909252828152606093909290918301828280156107b85780601f1061078d576101008083540402835291602001916107b8565b60006001600160a01b038216610f9b5760405162461bcd60e51b81526004016107e9906136b1565b6001600160a01b038216600090815260026020526040902061072490611f1a565b610fc4611a32565b6001600160a01b0316610fd5611132565b6001600160a01b031614610ffb5760405162461bcd60e51b81526004016107e9906137c6565b6013546040516000916001600160a01b0316907f8be0079c531659141344cd1fd0a4f28419497f9722a3daafe3b4186f6b6457e0908390a3601380546001600160a01b0319169055565b6110717f9f2df0fed2c77648de5860a4cc508cd0818c85b8b8a1ab4ceeef8d981c8956a66105a9611a32565b61108d5760405162461bcd60e51b81526004016107e990613a1e565b610dc47f9f2df0fed2c77648de5860a4cc508cd0818c85b8b8a1ab4ceeef8d981c8956a682610b16565b60009182526018602090815260408084206001600160a01b0393909316845291905290205460ff1690565b61110e7f65d7a28e3265b37a6474929f336521b332c1681b933f6cb9f3376673440d862a6105a9611a32565b61112a5760405162461bcd60e51b81526004016107e99061337a565b610d77611f25565b6013546001600160a01b031690565b60008281526020819052604081206111599083611f80565b9392505050565b60008281526020819052604081206111599083611f8c565b60088054604080516020601f60026000196101006001881615020190951694909404938401819004810282018101909252828152606093909290918301828280156107b85780601f1061078d576101008083540402835291602001916107b8565b6014805460408051602060026001851615610100026000190190941693909304601f8101849004840282018401909252818152929183018282801561125f5780601f106112345761010080835404028352916020019161125f565b820191906000526020600020905b81548152906001019060200180831161124257829003601f168201915b505050505081565b6112937f9f2df0fed2c77648de5860a4cc508cd0818c85b8b8a1ab4ceeef8d981c8956a66105a9611a32565b6112af5760405162461bcd60e51b81526004016107e990613a1e565b6112bd81610f036010611b21565b6001601260006112cd6010611b21565b81526020810191909152604001600020805460ff1916911515919091179055610dc46010611be9565b600081565b611303611a32565b6001600160a01b0316826001600160a01b031614156113345760405162461bcd60e51b81526004016107e99061341b565b8060066000611341611a32565b6001600160a01b03908116825260208083019390935260409182016000908120918716808252919093529120805460ff191692151592909217909155611385611a32565b6001600160a01b03167f17307eab39ab6107e8899845ad3d59bd9653f200f220920489ca2b5937696c31836040516113bd91906130c1565b60405180910390a35050565b600082815260166020526040812054156113f55760405162461bcd60e51b81526004016107e9906131f5565b60008281526016602052604090205482901561141b576000908152601660205260409020545b600090815260166020526040902083905550600192915050565b61143d611a32565b6001600160a01b031661144e611132565b6001600160a01b0316146114745760405162461bcd60e51b81526004016107e9906137c6565b60008281526015602052604090205461149f5760405162461bcd60e51b81526004016107e99061312a565b60009182526015602052604090912055565b6114c26114bc611a32565b83611aa4565b6114de5760405162461bcd60e51b81526004016107e9906138f6565b6114ea84848484611fa1565b50505050565b6000806114fc82610e85565b9050806001600160a01b0316611510611a32565b6001600160a01b0316148061152c575061152c816106db611a32565b8061153e575061153e83610573611a32565b61155a5760405162461bcd60e51b81526004016107e9906135d1565b6115646010611b21565b91506115708483611b25565b61157a6010611be9565b61158482846113c9565b505092915050565b606061159782611a25565b6115b35760405162461bcd60e51b81526004016107e990613858565b60606115bd611fd4565b6000848152601660205260409020549091508390156115e757506000838152601660205260409020545b60008251116116055760405180602001604052806000815250611630565b8161160f82612035565b604051602001611620929190613011565b6040516020818303038152906040525b949350505050565b600081815260208190526040812061072490611f1a565b7f9f2df0fed2c77648de5860a4cc508cd0818c85b8b8a1ab4ceeef8d981c8956a681565b600082815260208190526040902060020154611691906105a9611a32565b610bae5760405162461bcd60e51b81526004016107e99061353d565b60166020526000908152604090205481565b6116d06116ca611a32565b84611aa4565b6116ec5760405162461bcd60e51b81526004016107e9906135d1565b6116f4611a32565b6001600160a01b0316826001600160a01b031614156117255760405162461bcd60e51b81526004016107e99061341b565b60009283526018602090815260408085206001600160a01b039490941685529290529120805460ff1916911515919091179055565b60176020526000908152604090206001015481565b6019546001600160a01b0316156117985760405162461bcd60e51b81526004016107e99061370e565b601980546001600160a01b0319166001600160a01b0392909216919091179055565b7f65d7a28e3265b37a6474929f336521b332c1681b933f6cb9f3376673440d862a81565b6001600160a01b03918216600090815260066020908152604080832093909416825291909152205460ff1690565b600091825260156020526040909120541490565b611828611a32565b6001600160a01b0316611839611132565b6001600160a01b03161461185f5760405162461bcd60e51b81526004016107e9906137c6565b6001600160a01b0381166118855760405162461bcd60e51b81526004016107e9906132e6565b6013546040516001600160a01b038084169216907f8be0079c531659141344cd1fd0a4f28419497f9722a3daafe3b4186f6b6457e090600090a3601380546001600160a01b0319166001600160a01b0392909216919091179055565b60006118ed6010611b21565b90506118f98682611b25565b6119036010611be9565b6000818152601760205260408120905b838110156119e057600082600001828154811061192c57fe5b600091825260209091206003909102015586868281811061194957fe5b905060200201602081019061195e9190612b4a565b82600001828154811061196d57fe5b906000526020600020906003020160010160006101000a8154816001600160a01b0302191690836001600160a01b031602179055508484828181106119ae57fe5b905060200201358260000182815481106119c457fe5b6000918252602090912060026003909202010155600101611913565b505095945050505050565b6000611159836001600160a01b038416612128565b60006001600160e01b0319821663780e9d6360e01b1480610724575061072482612172565b6000610724600383612191565b3390565b600081815260056020526040902080546001600160a01b0319166001600160a01b0384169081179091558190611a6b82610e85565b6001600160a01b03167f8c5be1e5ebec7d5bd14f71427d1e84f3dd0314c0f7b2291e5b200ac8c7c3b92560405160405180910390a45050565b6000611aaf82611a25565b611acb5760405162461bcd60e51b81526004016107e9906134f1565b6000611ad683610e85565b9050806001600160a01b0316846001600160a01b03161480611b115750836001600160a01b0316611b06846107c2565b6001600160a01b0316145b80611630575061163081856117de565b5490565b6001600160a01b038216611b4b5760405162461bcd60e51b81526004016107e990613745565b611b5481611a25565b15611b715760405162461bcd60e51b81526004016107e990613343565b611b7d6000838361219d565b6001600160a01b0382166000908152600260205260409020611b9f9082612201565b50611bac6003828461220d565b5060405181906001600160a01b038416906000907fddf252ad1be2c89b69c2b068fc378daa952ba7f163c4a11628f55a4df523b3ef908290a45050565b80546001019055565b826001600160a01b0316611c0582610e85565b6001600160a01b031614611c2b5760405162461bcd60e51b81526004016107e9906137fb565b6001600160a01b038216611c515760405162461bcd60e51b81526004016107e9906133d7565b611c5c83838361219d565b611c67600082611a36565b6001600160a01b0383166000908152600260205260409020611c899082612223565b506001600160a01b0382166000908152600260205260409020611cac9082612201565b50611cb96003828461220d565b5080826001600160a01b0316846001600160a01b03167fddf252ad1be2c89b69c2b068fc378daa952ba7f163c4a11628f55a4df523b3ef60405160405180910390a4505050565b6000828152602081905260409020611d1890826119eb565b15610b2057611d25611a32565b6001600160a01b0316816001600160a01b0316837f2f8788117e7eff1d82e926ec794901d17c78024a50270940304540a733656f0d60405160405180910390a45050565b6000828152602081905260409020611d81908261222f565b15610b2057611d8e611a32565b6001600160a01b0316816001600160a01b0316837ff6391f5c32d9c69d2a47ea670b442974b53935d1edc7fd64eb21e047a839171b60405160405180910390a45050565b611dda610e7c565b611df65760405162461bcd60e51b81526004016107e9906131be565b600f805460ff191690557f5db9ee0a495bf2e6ff9c91a7834c1ba4fdd244a5e8aa4e537bd38aeae4b073aa611e29611a32565b604051611e369190613040565b60405180910390a1565b6000611e4b82610e85565b9050611e598160008461219d565b611e64600083611a36565b6000828152600960205260409020546002600019610100600184161502019091160415611ea2576000828152600960205260408120611ea291612a07565b6001600160a01b0381166000908152600260205260409020611ec49083612223565b50611ed0600383612244565b5060405182906000906001600160a01b038416907fddf252ad1be2c89b69c2b068fc378daa952ba7f163c4a11628f55a4df523b3ef908390a45050565b6000611630848484612250565b600061072482611b21565b611f2d610e7c565b15611f4a5760405162461bcd60e51b81526004016107e99061359a565b600f805460ff191660011790557f62e78cea01bee320cd4e420270b5ea74000d11b0c9f74754ebdbfc544b05a258611e29611a32565b600061115983836122af565b6000611159836001600160a01b0384166122f4565b611fac848484611bf2565b611fb88484848461230c565b6114ea5760405162461bcd60e51b81526004016107e990613289565b60148054604080516020601f60026000196101006001881615020190951694909404938401819004810282018101909252828152606093909290918301828280156107b85780601f1061078d576101008083540402835291602001916107b8565b60608161205a57506040805180820190915260018152600360fc1b6020820152610727565b8160005b811561207257600101600a8204915061205e565b60608167ffffffffffffffff8111801561208b57600080fd5b506040519080825280601f01601f1916602001820160405280156120b6576020820181803683370190505b50859350905060001982015b831561211f57600a840660300160f81b828280600190039350815181106120e557fe5b60200101907effffffffffffffffffffffffffffffffffffffffffffffffffffffffffffff1916908160001a905350600a840493506120c2565b50949350505050565b600061213483836122f4565b61216a57508154600181810184556000848152602080822090930184905584548482528286019093526040902091909155610a89565b506000610a89565b6001600160e01b03191660009081526001602052604090205460ff1690565b600061115983836122f4565b6121a8838383612415565b6001600160a01b038316158015906121c857506001600160a01b03821615155b156108a15760008181526012602052604090205460ff161515600114156108a15760405162461bcd60e51b81526004016107e9906139e7565b60006111598383612128565b600061163084846001600160a01b03851661249e565b60006111598383612535565b6000611159836001600160a01b038416612535565b600061115983836125fb565b600082815260018401602052604081205482816122805760405162461bcd60e51b81526004016107e991906130d5565b5084600001600182038154811061229357fe5b9060005260206000209060020201600101549150509392505050565b815460009082106122d25760405162461bcd60e51b81526004016107e9906130e8565b8260000182815481106122e157fe5b9060005260206000200154905092915050565b60009081526001919091016020526040902054151590565b6000612320846001600160a01b03166126cf565b61232c57506001611630565b60606123de630a85bd0160e11b612341611a32565b8887876040516024016123579493929190613054565b604051602081830303815290604052907bffffffffffffffffffffffffffffffffffffffffffffffffffffffff19166020820180517bffffffffffffffffffffffffffffffffffffffffffffffffffffffff8381831617835250505050604051806060016040528060328152602001613c6e603291396001600160a01b03881691906126d5565b90506000818060200190518101906123f69190612f02565b6001600160e01b031916630a85bd0160e11b1492505050949350505050565b6124208383836108a1565b6001600160a01b03831661243c57612437816126e4565b61245f565b816001600160a01b0316836001600160a01b03161461245f5761245f8382612728565b6001600160a01b03821661247b57612476816127bd565b6108a1565b826001600160a01b0316826001600160a01b0316146108a1576108a1828261284b565b600082815260018401602052604081205480612503575050604080518082018252838152602080820184815286546001818101895560008981528481209551600290930290950191825591519082015586548684528188019092529290912055611159565b8285600001600183038154811061251657fe5b9060005260206000209060020201600101819055506000915050611159565b600081815260018301602052604081205480156125f1578354600019808301919081019060009087908390811061256857fe5b906000526020600020015490508087600001848154811061258557fe5b6000918252602080832090910192909255828152600189810190925260409020908401905586548790806125b557fe5b60019003818190600052602060002001600090559055866001016000878152602001908152602001600020600090556001945050505050610a89565b6000915050610a89565b600081815260018301602052604081205480156125f1578354600019808301919081019060009087908390811061262e57fe5b906000526020600020906002020190508087600001848154811061264e57fe5b60009182526020808320845460029093020191825560019384015491840191909155835482528983019052604090209084019055865487908061268d57fe5b6000828152602080822060026000199094019384020182815560019081018390559290935588815289820190925260408220919091559450610a899350505050565b3b151590565b6060611630848460008561288f565b600d80546000838152600e60205260408120829055600182018355919091527fd7b6990105719101dabeb77144f2a3385c8033acd3af97e9423a695e81ad1eb50155565b6000600161273584610f73565b6000848152600c6020526040902054919003915080821461278a576001600160a01b0384166000908152600b602090815260408083208584528252808320548484528184208190558352600c90915290208190555b506000918252600c602090815260408084208490556001600160a01b039094168352600b81528383209183525290812055565b600d80546000838152600e60205260408120546000198301939092849081106127e257fe5b9060005260206000200154905080600d83815481106127fd57fe5b6000918252602080832090910192909255828152600e9091526040808220849055858252812055600d80548061282f57fe5b6001900381819060005260206000200160009055905550505050565b600061285683610f73565b6001600160a01b039093166000908152600b602090815260408083208684528252808320859055938252600c9052919091209190915550565b6060824710156128b15760405162461bcd60e51b81526004016107e990613494565b6128ba856126cf565b6128d65760405162461bcd60e51b81526004016107e990613953565b60006060866001600160a01b031685876040516128f39190612ff5565b60006040518083038185875af1925050503d8060008114612930576040519150601f19603f3d011682016040523d82523d6000602084013e612935565b606091505b5091509150612945828286612950565b979650505050505050565b6060831561295f575081611159565b82511561296f5782518084602001fd5b8160405162461bcd60e51b81526004016107e991906130d5565b828054600181600116156101000203166002900490600052602060002090601f016020900481019282601f106129ca57805160ff19168380011785556129f7565b828001600101855582156129f7579182015b828111156129f75782518255916020019190600101906129dc565b50612a03929150612a47565b5090565b50805460018160011615610100020316600290046000825580601f10612a2d5750610dc4565b601f016020900490600052602060002090810190610dc491905b5b80821115612a035760008155600101612a48565b80356001600160a01b0381168114610a8957600080fd5b60008083601f840112612a84578182fd5b50813567ffffffffffffffff811115612a9b578182fd5b6020830191508360208083028501011115612ab557600080fd5b9250929050565b80358015158114610a8957600080fd5b600082601f830112612adc578081fd5b813567ffffffffffffffff80821115612af3578283fd5b604051601f8301601f191681016020018281118282101715612b13578485fd5b604052828152925082848301602001861015612b2e57600080fd5b8260208601602083013760006020848301015250505092915050565b600060208284031215612b5b578081fd5b6111598383612a5c565b60008060408385031215612b77578081fd5b612b818484612a5c565b9150612b908460208501612a5c565b90509250929050565b600080600060608486031215612bad578081fd5b8335612bb881613c42565b92506020840135612bc881613c42565b929592945050506040919091013590565b60008060008060808587031215612bee578081fd5b612bf88686612a5c565b9350612c078660208701612a5c565b925060408501359150606085013567ffffffffffffffff811115612c29578182fd5b612c3587828801612acc565b91505092959194509250565b600080600080600060608688031215612c58578081fd5b612c628787612a5c565b9450602086013567ffffffffffffffff80821115612c7e578283fd5b612c8a89838a01612a73565b90965094506040880135915080821115612ca2578283fd5b50612caf88828901612a73565b969995985093965092949392505050565b600080600060408486031215612cd4578283fd5b8335612cdf81613c42565b9250602084013567ffffffffffffffff811115612cfa578283fd5b612d0686828701612a73565b9497909650939450505050565b60008060008060008060006080888a031215612d2d578182fd5b8735612d3881613c42565b9650602088013567ffffffffffffffff80821115612d54578384fd5b612d608b838c01612a73565b909850965060408a0135915080821115612d78578384fd5b612d848b838c01612a73565b909650945060608a0135915080821115612d9c578384fd5b50612da98a828b01612a73565b989b979a50959850939692959293505050565b60008060408385031215612dce578182fd5b612dd88484612a5c565b9150612b908460208501612abc565b60008060408385031215612df9578182fd5b612e038484612a5c565b946020939093013593505050565b600080600060608486031215612e25578283fd5b612e2f8585612a5c565b95602085013595506040909401359392505050565b60008060008060808587031215612e59578182fd5b8435612e6481613c42565b966020860135965060408601359560600135945092505050565b600060208284031215612e8f578081fd5b5035919050565b60008060408385031215612ea8578182fd5b823591506020830135612eba81613c42565b809150509250929050565b60008060408385031215612ed7578182fd5b50508035926020909101359150565b600060208284031215612ef7578081fd5b813561115981613c57565b600060208284031215612f13578081fd5b815161115981613c57565b600060208284031215612f2f578081fd5b813567ffffffffffffffff811115612f45578182fd5b61163084828501612acc565b600060208284031215612f62578081fd5b5051919050565b60008060408385031215612f7b578182fd5b82359150612b908460208501612a5c565b600080600060608486031215612fa0578081fd5b83359250612fb18560208601612a5c565b9150612fc08560408601612abc565b90509250925092565b60008151808452612fe1816020860160208601613c16565b601f01601f19169290920160200192915050565b60008251613007818460208701613c16565b9190910192915050565b60008351613023818460208801613c16565b835190830190613037818360208801613c16565b01949350505050565b6001600160a01b0391909116815260200190565b60006001600160a01b038087168352808616602084015250836040830152608060608301526130866080830184612fc9565b9695505050505050565b6001600160a01b03958616815293909416602084015260408301919091526060820152608081019190915260a00190565b901515815260200190565b90815260200190565b6000602082526111596020830184612fc9565b60208082526022908201527f456e756d657261626c655365743a20696e646578206f7574206f6620626f756e604082015261647360f01b606082015260800190565b60208082526018908201527f7a65726f20686173682063616e206e6f74206368616e67650000000000000000604082015260600190565b6020808252602f908201527f416363657373436f6e74726f6c3a2073656e646572206d75737420626520616e60408201527f2061646d696e20746f206772616e740000000000000000000000000000000000606082015260800190565b60208082526014908201527f5061757361626c653a206e6f7420706175736564000000000000000000000000604082015260600190565b60208082526010908201527f6f6e6c7920757064617465206f6e636500000000000000000000000000000000604082015260600190565b6020808252602b908201527f455243373231456e756d657261626c653a206f776e657220696e646578206f7560408201527f74206f6620626f756e6473000000000000000000000000000000000000000000606082015260800190565b60208082526032908201527f4552433732313a207472616e7366657220746f206e6f6e20455243373231526560408201527f63656976657220696d706c656d656e7465720000000000000000000000000000606082015260800190565b60208082526026908201527f4f776e61626c653a206e6577206f776e657220697320746865207a65726f206160408201527f6464726573730000000000000000000000000000000000000000000000000000606082015260800190565b6020808252601c908201527f4552433732313a20746f6b656e20616c7265616479206d696e74656400000000604082015260600190565b6020808252603e908201527f4552433732315072657365744d696e7465725061757365724175746f49643a2060408201527f6d75737420686176652070617573657220726f6c6520746f2070617573650000606082015260800190565b60208082526024908201527f4552433732313a207472616e7366657220746f20746865207a65726f206164646040820152637265737360e01b606082015260800190565b60208082526019908201527f4552433732313a20617070726f766520746f2063616c6c657200000000000000604082015260600190565b60208082526022908201527f6d7573742062652074686520636f7272656374206f7074696f6e20746f6b656e604082015261125960f21b606082015260800190565b60208082526026908201527f416464726573733a20696e73756666696369656e742062616c616e636520666f60408201527f722063616c6c0000000000000000000000000000000000000000000000000000606082015260800190565b6020808252602c908201527f4552433732313a206f70657261746f7220717565727920666f72206e6f6e657860408201526b34b9ba32b73a103a37b5b2b760a11b606082015260800190565b60208082526030908201527f416363657373436f6e74726f6c3a2073656e646572206d75737420626520616e60408201527f2061646d696e20746f207265766f6b6500000000000000000000000000000000606082015260800190565b60208082526010908201527f5061757361626c653a2070617573656400000000000000000000000000000000604082015260600190565b60208082526047908201527f4552433732315072657365744d696e7465725061757365724175746f49643a2060408201527f617574686f72697a65206d7573742068617665206d696e74657220726f6c652060608201527f746f206d696e7400000000000000000000000000000000000000000000000000608082015260a00190565b60208082526038908201527f4552433732313a20617070726f76652063616c6c6572206973206e6f74206f7760408201527f6e6572206e6f7220617070726f76656420666f7220616c6c0000000000000000606082015260800190565b6020808252602a908201527f4552433732313a2062616c616e636520717565727920666f7220746865207a6560408201527f726f206164647265737300000000000000000000000000000000000000000000606082015260800190565b60208082526017908201527f6f7074696f6e206d757374206265206e6f742073657421000000000000000000604082015260600190565b6020808252818101527f4552433732313a206d696e7420746f20746865207a65726f2061646472657373604082015260600190565b6020808252602c908201527f4552433732313a20617070726f76656420717565727920666f72206e6f6e657860408201526b34b9ba32b73a103a37b5b2b760a11b606082015260800190565b6020808252818101527f4f776e61626c653a2063616c6c6572206973206e6f7420746865206f776e6572604082015260600190565b60208082526029908201527f4552433732313a207472616e73666572206f6620746f6b656e2074686174206960408201527f73206e6f74206f776e0000000000000000000000000000000000000000000000606082015260800190565b6020808252602f908201527f4552433732314d657461646174613a2055524920717565727920666f72206e6f60408201527f6e6578697374656e7420746f6b656e0000000000000000000000000000000000606082015260800190565b60208082526021908201527f4552433732313a20617070726f76616c20746f2063757272656e74206f776e656040820152603960f91b606082015260800190565b60208082526031908201527f4552433732313a207472616e736665722063616c6c6572206973206e6f74206f60408201527f776e6572206e6f7220617070726f766564000000000000000000000000000000606082015260800190565b6020808252601d908201527f416464726573733a2063616c6c20746f206e6f6e2d636f6e7472616374000000604082015260600190565b6020808252602c908201527f455243373231456e756d657261626c653a20676c6f62616c20696e646578206f60408201527f7574206f6620626f756e64730000000000000000000000000000000000000000606082015260800190565b60208082526012908201527f6e6f7420616c6c6f77207472616e736665720000000000000000000000000000604082015260600190565b6020808252603d908201527f4552433732315072657365744d696e7465725061757365724175746f49643a2060408201527f6d7573742068617665206d696e74657220726f6c6520746f206d696e74000000606082015260800190565b60208082526030908201527f4552433732314275726e61626c653a2063616c6c6572206973206e6f74206f7760408201527f6e6572206e6f7220617070726f76656400000000000000000000000000000000606082015260800190565b602080825260409082018190527f4552433732315072657365744d696e7465725061757365724175746f49643a20908201527f6d75737420686176652070617573657220726f6c6520746f20756e7061757365606082015260800190565b6020808252602f908201527f416363657373436f6e74726f6c3a2063616e206f6e6c792072656e6f756e636560408201527f20726f6c657320666f722073656c660000000000000000000000000000000000606082015260800190565b60208082526046908201527f4552433732315072657365744d696e7465725061757365724175746f49643a2060408201527f7265637265617465206d7573742068617665206d696e74657220726f6c65207460608201527f6f206d696e740000000000000000000000000000000000000000000000000000608082015260a00190565b60005b83811015613c31578181015183820152602001613c19565b838111156114ea5750506000910152565b6001600160a01b0381168114610dc457600080fd5b6001600160e01b031981168114610dc457600080fdfe4552433732313a207472616e7366657220746f206e6f6e20455243373231526563656976657220696d706c656d656e7465724552433732313a206f776e657220717565727920666f72206e6f6e6578697374656e7420746f6b656ea164736f6c634300060c000a",
  "linkReferences": {},
  "deployedLinkReferences": {}
}