{
  "_format": "hh-sol-artifact-1",
  "contractName": "RoleControl",
  "sourceName": "contracts/RoleControl.sol",
  "abi": [
    {
      "inputs": [],
      "stateMutability": "nonpayable",
      "type": "constructor"
    },
    {
      "anonymous": false,
      "inputs": [
        {
          "indexed": true,
          "internalType": "address",
          "name": "previousOwner",
          "type": "address"
        },
        {
          "indexed": true,
          "internalType": "address",
          "name": "newOwner",
          "type": "address"
        }
      ],
      "name": "OwnershipTransferred",
      "type": "event"
    },
    {
      "anonymous": false,
      "inputs": [
        {
          "indexed": true,
          "internalType": "bytes32",
          "name": "role",
          "type": "bytes32"
        },
        {
          "indexed": true,
          "internalType": "bytes32",
          "name": "previousAdminRole",
          "type": "bytes32"
        },
        {
          "indexed": true,
          "internalType": "bytes32",
          "name": "newAdminRole",
          "type": "bytes32"
        }
      ],
      "name": "RoleAdminChanged",
      "type": "event"
    },
    {
      "anonymous": false,
      "inputs": [
        {
          "indexed": true,
          "internalType": "bytes32",
          "name": "role",
          "type": "bytes32"
        },
        {
          "indexed": true,
          "internalType": "address",
          "name": "account",
          "type": "address"
        },
        {
          "indexed": true,
          "internalType": "address",
          "name": "sender",
          "type": "address"
        }
      ],
      "name": "RoleGranted",
      "type": "event"
    },
    {
      "anonymous": false,
      "inputs": [
        {
          "indexed": true,
          "internalType": "bytes32",
          "name": "role",
          "type": "bytes32"
        },
        {
          "indexed": true,
          "internalType": "address",
          "name": "account",
          "type": "address"
        },
        {
          "indexed": true,
          "internalType": "address",
          "name": "sender",
          "type": "address"
        }
      ],
      "name": "RoleRevoked",
      "type": "event"
    },
    {
      "inputs": [],
      "name": "DEFAULT_ADMIN_ROLE",
      "outputs": [
        {
          "internalType": "bytes32",
          "name": "",
          "type": "bytes32"
        }
      ],
      "stateMutability": "view",
      "type": "function"
    },
    {
      "inputs": [
        {
          "internalType": "bytes32",
          "name": "roleName",
          "type": "bytes32"
        },
        {
          "internalType": "bytes32[]",
          "name": "permissions",
          "type": "bytes32[]"
        },
        {
          "internalType": "address[]",
          "name": "permissionContractAddrs",
          "type": "address[]"
        }
      ],
      "name": "addPermission",
      "outputs": [],
      "stateMutability": "nonpayable",
      "type": "function"
    },
    {
      "inputs": [
        {
          "internalType": "bytes32",
          "name": "roleName",
          "type": "bytes32"
        },
        {
          "internalType": "bytes32",
          "name": "adminRole",
          "type": "bytes32"
        },
        {
          "internalType": "bytes32",
          "name": "permissionRole",
          "type": "bytes32"
        },
        {
          "internalType": "bytes32[]",
          "name": "permissions",
          "type": "bytes32[]"
        },
        {
          "internalType": "address[]",
          "name": "permissionContractAddrs",
          "type": "address[]"
        }
      ],
      "name": "addRole",
      "outputs": [],
      "stateMutability": "nonpayable",
      "type": "function"
    },
    {
      "inputs": [
        {
          "internalType": "bytes32",
          "name": "roleName",
          "type": "bytes32"
        },
        {
          "internalType": "bytes32",
          "name": "permissionName",
          "type": "bytes32"
        },
        {
          "internalType": "bytes32",
          "name": "dataHash",
          "type": "bytes32"
        },
        {
          "internalType": "uint32",
          "name": "operations",
          "type": "uint32"
        }
      ],
      "name": "checkPermission",
      "outputs": [
        {
          "internalType": "bool",
          "name": "",
          "type": "bool"
        }
      ],
      "stateMutability": "view",
      "type": "function"
    },
    {
      "inputs": [
        {
          "internalType": "bytes32",
          "name": "roleName",
          "type": "bytes32"
        },
        {
          "internalType": "bytes32[]",
          "name": "permissions",
          "type": "bytes32[]"
        }
      ],
      "name": "delPermission",
      "outputs": [],
      "stateMutability": "nonpayable",
      "type": "function"
    },
    {
      "inputs": [
        {
          "internalType": "bytes32",
          "name": "role",
          "type": "bytes32"
        }
      ],
      "name": "getRoleAdmin",
      "outputs": [
        {
          "internalType": "bytes32",
          "name": "",
          "type": "bytes32"
        }
      ],
      "stateMutability": "view",
      "type": "function"
    },
    {
      "inputs": [
        {
          "internalType": "bytes32",
          "name": "role",
          "type": "bytes32"
        },
        {
          "internalType": "uint256",
          "name": "index",
          "type": "uint256"
        }
      ],
      "name": "getRoleMember",
      "outputs": [
        {
          "internalType": "address",
          "name": "",
          "type": "address"
        }
      ],
      "stateMutability": "view",
      "type": "function"
    },
    {
      "inputs": [
        {
          "internalType": "bytes32",
          "name": "role",
          "type": "bytes32"
        }
      ],
      "name": "getRoleMemberCount",
      "outputs": [
        {
          "internalType": "uint256",
          "name": "",
          "type": "uint256"
        }
      ],
      "stateMutability": "view",
      "type": "function"
    },
    {
      "inputs": [
        {
          "internalType": "bytes32",
          "name": "role",
          "type": "bytes32"
        },
        {
          "internalType": "address",
          "name": "account",
          "type": "address"
        }
      ],
      "name": "grantRole",
      "outputs": [],
      "stateMutability": "nonpayable",
      "type": "function"
    },
    {
      "inputs": [
        {
          "internalType": "bytes32",
          "name": "role",
          "type": "bytes32"
        },
        {
          "internalType": "address",
          "name": "account",
          "type": "address"
        }
      ],
      "name": "hasRole",
      "outputs": [
        {
          "internalType": "bool",
          "name": "",
          "type": "bool"
        }
      ],
      "stateMutability": "view",
      "type": "function"
    },
    {
      "inputs": [],
      "name": "owner",
      "outputs": [
        {
          "internalType": "address",
          "name": "",
          "type": "address"
        }
      ],
      "stateMutability": "view",
      "type": "function"
    },
    {
      "inputs": [],
      "name": "renounceOwnership",
      "outputs": [],
      "stateMutability": "nonpayable",
      "type": "function"
    },
    {
      "inputs": [
        {
          "internalType": "bytes32",
          "name": "role",
          "type": "bytes32"
        },
        {
          "internalType": "address",
          "name": "account",
          "type": "address"
        }
      ],
      "name": "renounceRole",
      "outputs": [],
      "stateMutability": "nonpayable",
      "type": "function"
    },
    {
      "inputs": [
        {
          "internalType": "bytes32",
          "name": "role",
          "type": "bytes32"
        },
        {
          "internalType": "address",
          "name": "account",
          "type": "address"
        }
      ],
      "name": "revokeRole",
      "outputs": [],
      "stateMutability": "nonpayable",
      "type": "function"
    },
    {
      "inputs": [
        {
          "internalType": "bytes32",
          "name": "",
          "type": "bytes32"
        }
      ],
      "name": "roles",
      "outputs": [
        {
          "internalType": "bool",
          "name": "isUsed",
          "type": "bool"
        },
        {
          "internalType": "bytes32",
          "name": "roleName",
          "type": "bytes32"
        },
        {
          "internalType": "bytes32",
          "name": "adminRole",
          "type": "bytes32"
        },
        {
          "internalType": "bytes32",
          "name": "permissionRole",
          "type": "bytes32"
        }
      ],
      "stateMutability": "view",
      "type": "function"
    },
    {
      "inputs": [
        {
          "internalType": "address",
          "name": "newOwner",
          "type": "address"
        }
      ],
      "name": "transferOwnership",
      "outputs": [],
      "stateMutability": "nonpayable",
      "type": "function"
    }
  ],
  "bytecode": "0x60806040523480156200001157600080fd5b5060006200001e620000a3565b600080546001600160a01b0319166001600160a01b0383169081178255604051929350917f8be0079c531659141344cd1fd0a4f28419497f9722a3daafe3b4186f6b6457e0908290a3506200009d7fd387004a44187fca6ef23d936cb1f140fa95249dbbe12d279d18fee1c03a9b0462000097620000a3565b620000a7565b620001ca565b3390565b620000be8282620000c260201b620002ae1760201c565b5050565b620000be82826000828152600160209081526040909120620000ef918390620009e762000143821b17901c565b15620000be57620000ff620000a3565b6001600160a01b0316816001600160a01b0316837f2f8788117e7eff1d82e926ec794901d17c78024a50270940304540a733656f0d60405160405180910390a45050565b60006200015a836001600160a01b03841662000163565b90505b92915050565b6000620001718383620001b2565b620001a9575081546001818101845560008481526020808220909301849055845484825282860190935260409020919091556200015d565b5060006200015d565b60009081526001919091016020526040902054151590565b61127b80620001da6000396000f3fe608060405234801561001057600080fd5b50600436106101005760003560e01c806391d1485411610097578063ca15c87311610066578063ca15c8731461020a578063d547741f1461021d578063f2fde38b14610230578063fe6250011461024357610100565b806391d14854146101b957806395356651146101cc5780639b0b6ab9146101ef578063a217fddf1461020257610100565b8063715018a6116100d3578063715018a614610169578063729fec41146101715780638da5cb5b146101915780639010d07c146101a657610100565b8063248a9ca3146101055780632f2ff15d1461012e57806336568abe146101435780635aa2ddbd14610156575b600080fd5b610118610113366004610d77565b610256565b6040516101259190610fb9565b60405180910390f35b61014161013c366004610d8f565b61026b565b005b610141610151366004610d8f565b6102bc565b610141610164366004610e13565b6102fe565b610141610433565b61018461017f366004610f14565b6104bc565b6040516101259190610f91565b61019961059e565b6040516101259190610f7d565b6101996101b4366004610f5c565b6105ad565b6101846101c7366004610d8f565b6105ce565b6101df6101da366004610d77565b6105e6565b6040516101259493929190610f9c565b6101416101fd366004610e8a565b610613565b6101186107d8565b610118610218366004610d77565b6107dd565b61014161022b366004610d8f565b6107f4565b61014161023e366004610d29565b61082e565b610141610251366004610dc9565b6108ee565b60009081526001602052604090206002015490565b600082815260016020526040902060020154610289906101c76109fc565b6102ae5760405162461bcd60e51b81526004016102a590611020565b60405180910390fd5b6102b88282610a00565b5050565b6102c46109fc565b6001600160a01b0316816001600160a01b0316146102f45760405162461bcd60e51b81526004016102a5906111da565b6102b88282610a69565b60008581526002602052604090206003810154869190610320906101c76109fc565b61033c5760405162461bcd60e51b81526004016102a59061107d565b6000878152600260205260409020805460ff1661036b5760405162461bcd60e51b81526004016102a5906111a3565b60005b868110156104285760018260040160008a8a8581811061038a57fe5b90506020020135815260200190815260200160002060006101000a81548160ff0219169083151502179055508585828181106103c257fe5b90506020020160208101906103d79190610d29565b8260050160008a8a858181106103e957fe5b6020908102929092013583525081019190915260400160002080546001600160a01b0319166001600160a01b039290921691909117905560010161036e565b505050505050505050565b61043b6109fc565b6001600160a01b031661044c61059e565b6001600160a01b0316146104725760405162461bcd60e51b81526004016102a59061116e565b600080546040516001600160a01b03909116907f8be0079c531659141344cd1fd0a4f28419497f9722a3daafe3b4186f6b6457e0908390a3600080546001600160a01b0319169055565b6000848152600260205260408120805460ff166104dd576000915050610596565b600085815260048201602052604090205460ff166104ff576000915050610596565b600085815260058201602052604090819020549051636ffd505560e11b81526001600160a01b039091169063dffaa0aa9061054290889088908890600401610fc2565b60206040518083038186803b15801561055a57600080fd5b505afa15801561056e573d6000803e3d6000fd5b505050506040513d601f19601f820116820180604052508101906105929190610d57565b9150505b949350505050565b6000546001600160a01b031690565b60008281526001602052604081206105c59083610ad2565b90505b92915050565b60008281526001602052604081206105c59083610ade565b6002602081905260009182526040909120805460018201549282015460039092015460ff90911692919084565b61061b6109fc565b6001600160a01b031661062c61059e565b6001600160a01b0316146106525760405162461bcd60e51b81526004016102a59061116e565b6000878152600260205260409020805460ff16156106825760405162461bcd60e51b81526004016102a590611237565b805460ff1916600190811782558101889055600281018790556003810186905560005b8481101561075f5760018260040160008888858181106106c157fe5b90506020020135815260200190815260200160002060006101000a81548160ff0219169083151502179055508383828181106106f957fe5b905060200201602081019061070e9190610d29565b82600501600088888581811061072057fe5b6020908102929092013583525081019190915260400160002080546001600160a01b0319166001600160a01b03929092169190911790556001016106a5565b5061078e81600201547fd387004a44187fca6ef23d936cb1f140fa95249dbbe12d279d18fee1c03a9b04610af3565b6107bc81600301547fd387004a44187fca6ef23d936cb1f140fa95249dbbe12d279d18fee1c03a9b04610af3565b6107ce81600101548260020154610af3565b5050505050505050565b600081565b60008181526001602052604081206105c890610afd565b600082815260016020526040902060020154610812906101c76109fc565b6102f45760405162461bcd60e51b81526004016102a590611111565b6108366109fc565b6001600160a01b031661084761059e565b6001600160a01b03161461086d5760405162461bcd60e51b81526004016102a59061116e565b6001600160a01b0381166108935760405162461bcd60e51b81526004016102a5906110b4565b600080546040516001600160a01b03808516939216917f8be0079c531659141344cd1fd0a4f28419497f9722a3daafe3b4186f6b6457e091a3600080546001600160a01b0319166001600160a01b0392909216919091179055565b60008381526002602052604090206003810154849190610910906101c76109fc565b61092c5760405162461bcd60e51b81526004016102a59061107d565b6000858152600260205260409020805460ff1661095b5760405162461bcd60e51b81526004016102a5906111a3565b60005b848110156109de5781600401600087878481811061097857fe5b90506020020135815260200190815260200160002060006101000a81549060ff02191690558160050160008787848181106109af57fe5b6020908102929092013583525081019190915260400160002080546001600160a01b031916905560010161095e565b50505050505050565b60006105c5836001600160a01b038416610b08565b3390565b6000828152600160205260409020610a1890826109e7565b156102b857610a256109fc565b6001600160a01b0316816001600160a01b0316837f2f8788117e7eff1d82e926ec794901d17c78024a50270940304540a733656f0d60405160405180910390a45050565b6000828152600160205260409020610a819082610b52565b156102b857610a8e6109fc565b6001600160a01b0316816001600160a01b0316837ff6391f5c32d9c69d2a47ea670b442974b53935d1edc7fd64eb21e047a839171b60405160405180910390a45050565b60006105c58383610b67565b60006105c5836001600160a01b038416610bac565b6102b88282610bc4565b60006105c882610c16565b6000610b148383610bac565b610b4a575081546001818101845560008481526020808220909301849055845484825282860190935260409020919091556105c8565b5060006105c8565b60006105c5836001600160a01b038416610c1a565b81546000908210610b8a5760405162461bcd60e51b81526004016102a590610fde565b826000018281548110610b9957fe5b9060005260206000200154905092915050565b60009081526001919091016020526040902054151590565b600082815260016020526040808220600201549051839285917fbd79b86ffe0ab8e8776151514217cd7cacd52c909f66475c3af44e129f0b00ff9190a460009182526001602052604090912060020155565b5490565b60008181526001830160205260408120548015610cd65783546000198083019190810190600090879083908110610c4d57fe5b9060005260206000200154905080876000018481548110610c6a57fe5b600091825260208083209091019290925582815260018981019092526040902090840190558654879080610c9a57fe5b600190038181906000526020600020016000905590558660010160008781526020019081526020016000206000905560019450505050506105c8565b60009150506105c8565b60008083601f840112610cf1578182fd5b50813567ffffffffffffffff811115610d08578182fd5b6020830191508360208083028501011115610d2257600080fd5b9250929050565b600060208284031215610d3a578081fd5b81356001600160a01b0381168114610d50578182fd5b9392505050565b600060208284031215610d68578081fd5b81518015158114610d50578182fd5b600060208284031215610d88578081fd5b5035919050565b60008060408385031215610da1578081fd5b8235915060208301356001600160a01b0381168114610dbe578182fd5b809150509250929050565b600080600060408486031215610ddd578081fd5b83359250602084013567ffffffffffffffff811115610dfa578182fd5b610e0686828701610ce0565b9497909650939450505050565b600080600080600060608688031215610e2a578081fd5b85359450602086013567ffffffffffffffff80821115610e48578283fd5b610e5489838a01610ce0565b90965094506040880135915080821115610e6c578283fd5b50610e7988828901610ce0565b969995985093965092949392505050565b600080600080600080600060a0888a031215610ea4578182fd5b873596506020880135955060408801359450606088013567ffffffffffffffff80821115610ed0578384fd5b610edc8b838c01610ce0565b909650945060808a0135915080821115610ef4578384fd5b50610f018a828b01610ce0565b989b979a50959850939692959293505050565b60008060008060808587031215610f29578384fd5b843593506020850135925060408501359150606085013563ffffffff81168114610f51578182fd5b939692955090935050565b60008060408385031215610f6e578182fd5b50508035926020909101359150565b6001600160a01b0391909116815260200190565b901515815260200190565b931515845260208401929092526040830152606082015260800190565b90815260200190565b928352602083019190915263ffffffff16604082015260600190565b60208082526022908201527f456e756d657261626c655365743a20696e646578206f7574206f6620626f756e604082015261647360f01b606082015260800190565b6020808252602f908201527f416363657373436f6e74726f6c3a2073656e646572206d75737420626520616e60408201527f2061646d696e20746f206772616e740000000000000000000000000000000000606082015260800190565b60208082526015908201527f6e656564207065726d697373696f6e2061646d696e0000000000000000000000604082015260600190565b60208082526026908201527f4f776e61626c653a206e6577206f776e657220697320746865207a65726f206160408201527f6464726573730000000000000000000000000000000000000000000000000000606082015260800190565b60208082526030908201527f416363657373436f6e74726f6c3a2073656e646572206d75737420626520616e60408201527f2061646d696e20746f207265766f6b6500000000000000000000000000000000606082015260800190565b6020808252818101527f4f776e61626c653a2063616c6c6572206973206e6f7420746865206f776e6572604082015260600190565b60208082526014908201527f6d75737420657869737420726f6c65206e616d65000000000000000000000000604082015260600190565b6020808252602f908201527f416363657373436f6e74726f6c3a2063616e206f6e6c792072656e6f756e636560408201527f20726f6c657320666f722073656c660000000000000000000000000000000000606082015260800190565b60208082526012908201527f6d757374206e657720726f6c65206e616d65000000000000000000000000000060408201526060019056fea164736f6c634300060c000a",
  "linkReferences": {},
  "deployedLinkReferences": {}
}